:1000000008308A00522F0000FF00030E8301A60073
:100010007F08A5000A08AD008A01A50E0408A70004
:100020002008A8002108A9002208AA002308AB0084
:100030002408AC00831383120B1E20288B183D2844
:100040008C308400001C26280C183F288B1E2A2880
:100050000B194128270884002808A0002908A100BE
:100060002A08A2002B08A3002C08A4002D088A004F
:10007000260E8300FF0E7F0E09008A1177288A1151
:1000800073288A114E280A108A100A1182077034C8
:100090006E34E4346D3420346B3400344F1C5728F4
:1000A0008F018E01CD01C03081004F1070280F08E4
:1000B000A3000E08A0000F082302031D57282008E4
:1000C000C0002308C100CE0A4D08073C0318702861
:1000D000CF144108003C0318702883160C108312BB
:1000E0000B118A112A28CD0A0C108A112A280B120A
:1000F0004A088316BF00BF0B7B2883124B18802849
:10010000CB1C842800008428000042088316BE000F
:100110003E0883124C0203188D288316BE1C9228B9
:10012000000092283E1D982800000000000098283A
:10013000000083124F1CAD2800009F149F189E28BA
:1001400083161E088312D8071E0803181E0FD9072E
:100150004F1083160117BB2883129F149F18AE28D7
:1001600083161E088312D8021E08031C1E0FD90214
:100170004F14831601138312C20A0319C30A4308DA
:100180000E3C031CC928031DC82842087F3C0318E5
:100190000B168B108316BE0183128B18D72883167B
:1001A000BE1ED4288312D728BE0ACC2883128B10F7
:1001B0008A112A28A0308400831300080319ED282F
:1001C0000630A100A001A00BE328A10BE2287B30A0
:1001D000A000A00BE928800BE02800348316341817
:1001E000F52883128713F72883168312871783163F
:1001F0008713B418FF28831207130129831683126B
:1002000007178316071334190929831287110B293D
:1002100083168312871583168711B4191329831245
:1002200087121529831683128716831687120330C7
:100230008312A000A00B1A29831686138312861737
:100240000330A000A00B2229831686138312861385
:10025000003483160613831206136330A000A00B2C
:100260002F2932298316B10803193A29061383125C
:1002700006178316320EB3000F30B3053308B400EF
:100280008312EE20831632080F39B300B4008312B4
:10029000EE200330A000A00B4B29003480308316E1
:1002A000B00083122E0F55296129AE0803195B296E
:1002B0008316301783128316B1013008B2008312FF
:1002C000292183162D08AF002F08831203178D00F4
:1002D00083168C130C1483120C0883160313AE00C0
:1002E0002E0F7329872983122F088316AE062D0837
:1002F000B1002E08B20083122921AF080319842906
:1003000083162E088312AF008316AF0A64292D08C6
:100310002F02031D9729AF012F1A97290130B10031
:100320002030B200831229218316AF0A8C29831250
:100330002F08303C0319AF0100340830F300FA30C5
:100340008316A0008312DA20F30B9F290034643057
:100350008316A0008312DA2000346D088316A500EE
:1003600083126C088316A40083126B088316A30003
:1003700083126A088316A200A901A8012108A70018
:100380002008A6002030AE00AA01AB01AC01AD01EF
:1003900025088312A300831624088312A200831663
:1003A00023088312A100831622088312A0000310E1
:1003B000201CEA2983162608AA0727080318270FF6
:1003C000AB0728080318280FAC0729080318290FC2
:1003D000AD0783128316AD0CAC0CAB0CAA0C8312C8
:1003E000A30CA20CA10CA00C8316AE0BF829FA29C1
:1003F0008312D72983122308ED002208EC0021087C
:10040000EB002008EA000034B630A000A301A201EE
:10041000A10183162008210422042304031D142AA9
:100420008312A001272A831603108312A11B262AF8
:100430008316A00DA10DA20DA30D8312A30DA20D75
:10044000A10DA00B242A262A8316142AA1130034F6
:10045000831620080319072BAC0024080319072B67
:10046000AC02031C382A7F30AC070318072B3E2A46
:100470008130AC02031C072B0319072B2C088312B5
:10048000A000A101A201A3018316AB012108AA00CB
:10049000AA172208A9002308A8001930AC002708D1
:1004A000A8020318632A0130A9020318632AAA02CA
:1004B0000318632AAB020318632AAB0AAA0AA90A23
:1004C0002708A807972A2608A90203187E2A0130C0
:1004D000AA0203187E2AAB0203187E2AAB0AAA0AD4
:1004E0002608A9072708A807031C972AA90A031D9D
:1004F000972AAA0A031D972AAB0A972A250880384B
:10050000AA020318942A0130AB020318942AAB0AFA
:1005100025088038AA072608A907031C722AAA0AF8
:10052000031D722AAB0A722A831223148316AC0BA2
:100530009A2AA72A0310A80DA90DAA0DAB0D031026
:100540008312A30DA20DA10D8316AD0D4F2A2D1CF4
:10055000B12A03108312A10CA20CA30C8316AD0CBC
:10056000B72A8312A00BB62A8316072B8316AD1B5E
:10057000E02A0310A80DA90DAA0DAB0D2708A802AB
:100580000318CC2A0130A9020318CC2AAA020318A6
:10059000CC2AAB02031CF92A2608A9020318D72A81
:1005A0000130AA020318D72AAB02031CF92A250836
:1005B0008038AA020318E02A0130AB02031CF92A92
:1005C0008312A30A0319E62A8316F92AA20A031939
:1005D000EB2A8316F92AA10A0319F02A8316F92AAD
:1005E000A00A031DF52A8316072BA10CA20CA30C4D
:1005F00083162108AC002508AC06AC1F032B831220
:10060000A1170C2B83168312A1130C2B83168312B4
:10061000A001A101A201A30100348E30A000831625
:1006200020088312A002831621088312A2008316D9
:1006300022088312A100A217A00803192A2B031075
:10064000A208031D262BA10803192A2BA20CA10C1A
:10065000A00B1F2B8316A11F342B8312A109A20903
:10066000A10A0319A20A83168312003483162008F4
:100670000319CF2BA80024080319CF2BA8070318B0
:10068000482B7F30A802031CCF2B0319CF2B4C2BF8
:100690008130A8070318CF2B28088312A000A101DE
:1006A000A201A30183162108AC00AC172208AB00FD
:1006B0002308AA001830A800A9012A1C862B2708A5
:1006C0008312A307031C6D2BA20A031D6D2BA10A25
:1006D000031D6D2B8316A917831283162608831218
:1006E000A207031C792BA10A031D792B8316A917D6
:1006F000831283162508A200A21722088312A107DD
:10070000031C852B8316A91783128316A90D831248
:10071000A10CA20CA30C8316AC0CAB0CAA0C0310FE
:10072000A80B5C2B01308312A007031C992B8316A6
:10073000CF2BA11BA52B8316AC0D8312A30DA20DED
:10074000A10DA00BA52B8316CF2B8316AC1FC12B9D
:100750008312A30A0319AE2B8316C12BA20A031915
:10076000B32B8316C12BA10A0319B82B8316C12BF7
:10077000A10CA20CA30CA00A031DC02B8316CF2B27
:1007800083162108A9002508A906A91FCB2B8312CF
:10079000A117D42B83168312A113D42B8316831293
:1007A000A001A101A201A3010034A001A101A201A5
:1007B000A3018316B701B801B901BA01360835049F
:1007C000340433040319162C2030BB000310AF0D82
:1007D000B00DB10DB20DB70DB80DB90DBA0D36088B
:1007E0003A02031DFD2B35083902031DFD2B340889
:1007F0003802031DFD2B33083702031C0E2C33086F
:10080000B7023408031C340FB8023508031C350F37
:10081000B9023608031C360FBA0203148312A00D66
:10082000A10DA20DA30D8316BB0BE62BB7308400E0
:100830008313831200346D088316B20083126C0890
:100840008316B10083126B088316B00083126A0806
:100850008316AF00B601B5012E08B4002D08B30011
:100860008312D5232308ED002208EC002108EB00B9
:100870002008EA00003483162008B63CA00083124A
:10088000A30183162108A400A1170310A10CA20C38
:10089000A30C8312A30CA20CA10CA00C8316A00B1A
:1008A000452CA41F602C8312A009A109A209A30949
:1008B000A00A0319A10A0319A20A0319A30A83169D
:1008C00083120034A721F101F001EF01EE014F1472
:1008D000CF10C501C401FF30CE00CD01FE30810034
:1008E0008F018E010B1183160C1483128B16C030EE
:1008F0008B04CF187F2C4D08273C0318792C0B1341
:100900008B138B1B802C8B1283160C108312CF1C25
:10091000782DFE014E08FD00FD0DFE0DFD0DFE0DB6
:10092000FC30FD05FD0A0319FE0AED013030EC0034
:10093000D430EB00EA017E088316A1007D08A000F8
:100940008312AD216D088316A30083126C088316F1
:10095000A20083126B088316A10083126A08831613
:10096000A000831204222308F1002208F0002108CD
:10097000EF002008EE00FC014D08FB004008F900E4
:100980004108FA003630F9020030031C0130FA0247
:100990000030031C0130FB020030031C0130FC025C
:1009A0007C088316A3007B08A2007A08A1007908BE
:1009B000A0008312042271088316A3007008A2000D
:1009C00083126F088316A10083126E088316A0009D
:1009D000831223088316A700831222088316A60019
:1009E000831221088316A500831220088316A40011
:1009F000831228222308F1002208F0002108EF00CA
:100A00002008EE0071088316A3007008A20083126C
:100A10006F088316A10083126E088316A00083124C
:100A20000D232208C5002108C4006F08D3007108F7
:100A30008316A3007008A20083126F088316A1001A
:100A400083126E088316A0007108A7007008A60024
:100A500083126F088316A50083126E088316A40004
:100A6000831236232308F1002208F0002108EF004A
:100A70002008EE007C08ED007B08EC007A08EB0013
:100A80007908EA008316A1010730A0008312AD2186
:100A90007E088316AE007D08AD0083121B246A0811
:100AA000CC00F830CC056B08CB004630CB02710887
:100AB0008316A3007008A20083126F088316A1009A
:100AC00083126E088316A00083123B242308ED00D6
:100AD0002208EC002108EB002008EA008316AE0192
:100AE0003930AD0083121B246B08D9006A08D80086
:100AF00000340730F30020308316A000A100A200CC
:100B0000A300A400A5003F30A6002030A700A80045
:100B1000A900AA00AB01F7008312501C942D3D30B0
:100B20008316A200972D83123D308316A1008312F5
:100B3000CF1C252EED1FA92D2D30F700EA09EB095A
:100B4000EC09ED09EA0A0319EB0A0319EC0A031987
:100B5000ED0AED08031DBA2DEC08031DBA2D6B0834
:100B6000263C0318C22DFF3A031DBA2D6A080F3C1C
:100B70000318C22D8316AE010A30AD0083121B2468
:100B8000D10AA92DF4015108023C0318CB2D0330E2
:100B9000D102F40AC32D0430D1075018D10A5108EC
:100BA000073C0319D10173085102031DDF2D73089F
:100BB000F303A03E840083132E308000D101F601A0
:100BC000F501EB08031DE82D6A08093C0318F22D16
:100BD0000A30EA020030031C0130EB02F50A031967
:100BE000F60AE12D7308F303A03E8400831330302E
:100BF0006A078000501CFF2D0730F3005010760864
:100C0000EB007508EA006A086B04031DD32DD108B8
:100C1000031DD32D7308073C0319F303A03073079A
:100C2000840083137708800074084320A100831692
:100C3000A9008312D5080319252E56088316A00093
:100C4000831255088316A1008312D5015708831615
:100C5000AA00831252088316AD0083124E21F301BD
:100C600073080A3C031C432EA030730784008313CF
:100C70000008F80001308316B1007808B200831232
:100C80002921F30A302E0034831686128312861629
:100C90006224831686128312861200348E30A000DE
:100CA0007A08A1007908A200A301A108031D622E01
:100CB0002208A100A2010830A002A108031D622E93
:100CC000A0016A2E0310A11B692EA20DA10DA00385
:100CD000622EA11300348030831C712E8316A5066A
:100CE00083128316AA01AB012108A9002508A906D1
:100CF00020080319762FA8008312A0008316240869
:100D00000319812FA8020319102F031CC82E2508D0
:100D1000AE00AE172608AD002708AC00AB010310EB
:100D2000AE0CAD0CAC0CAB0CA80B8E2EA91F9B2EE1
:100D30002A149D2F2A1028102A16A330840083130A
:100D4000B22F2A12A91BB02E281CBD2EAE0CAD0C42
:100D5000AC0CAB0C8312A00A0319972F8316BD2E7F
:100D6000AE1BC02E0310AB0DAC0DAD0DAE0D83123E
:100D7000A0030319972F8316B02E2A17322F2A1398
:100D80002108A900A11FC62EAE178B2FAE138B2FE3
:100D90002408A8008312A00083162008A8022108B6
:100DA000AE00AE172208AD002308AC00AB01031063
:100DB000AE0CAD0CAC0CAB0CA80BD62EA91FE32EC1
:100DC000AA149D2FAA102810AA16A73084008313F6
:100DD000B22FAA12A91BF82E281C052FAE0CAD0CA1
:100DE000AC0CAB0C8312A00A0319972F8316052FA6
:100DF000AE1B082F0310AB0DAC0DAD0DAE0D831265
:100E0000A0030319972F8316F82EAA17322FAA13BF
:100E10002508A900A51F0E2FAE178B2FAE138B2F01
:100E20002508AE00AE172608AD002708AC00A91FA4
:100E30001D2FAE132A159D2F2A11AB012810A330A8
:100E400084008313B22FA91B4A2F2108A900281C54
:100E5000322FAE0CAD0CAC0CAB0C8312A00A0319F4
:100E6000972F8316AB1F452FAC0A031D452FAD0AE4
:100E7000031D452FAE0A031D452FAE0CAD0CAC0C67
:100E80008312A00A0319972F83162A1BBF2EAA1BB1
:100E9000072F702F8030AE06AE1F522F9D2F2508D2
:100EA000A900612F2108A900AE08031D612FAD081C
:100EB000031D612FAC08031D612F8312A00183164F
:100EC0008B2FAE1B702F0310AB0DAC0DAD0DAE0D07
:100ED0008312A00B6C2F6E2F8316612F972F831612
:100EE000A91F742FAE178B2FAE138B2F24088312DC
:100EF000A00083162508AE002608AD002708AC0028
:100F00008B2F20088312A00083162108AE00220830
:100F1000AD002308AC002E088312A10083162D0813
:100F20008312A20083162C088312A300D12FA001E4
:100F3000A101A201A301D12F8316AB01AC09AD0918
:100F4000AE09AB09AB0A031DAB2FAC0A031DAB2FD7
:100F5000AD0A0319AE0A2A189A2EAA18E22E2A19E7
:100F60001C2F4F2F0008AC07031CBC2FAD0A031D1C
:100F7000BC2FAE0A0319281484030008AD07031C14
:100F8000C42FAE0A0319281484030008801F803A76
:100F9000AE07031828142A1AA12EAA1AE92E232F05
:100FA000831200348A1500208A113F088316A3009B
:100FB00083123E088316A20083123D088316A10007
:100FC00083123C088316A000831223088316A7000F
:100FD000831222088316A600831221088316A50017
:100FE000831220088316A400831228222308BF003E
:0E0FF0002208BE002108BD002008BC0000340D
:1010000033088316A300831232088316A2008312CA
:1010100031088316A100831230088316A0008312C2
:1010200037088316A700831236088316A60083129A
:1010300035088316A500831234088316A4008A118C
:10104000831228228A152008F9002108FA002208B4
:10105000FB002308FC0083147C088316A3007B0894
:10106000A2007A08A1007908A0007230A700F93028
:10107000A6007F30A5007E30A4008A1183126B2663
:101080008A1500343F088316A30083123E08831696
:10109000A20083123D088316A10083123C08831628
:1010A000A000831237088316A70083123608831620
:1010B000A600831235088316A50083123408831610
:1010C000A4008A11831236238A156F308316A30079
:1010D000FC30A2000F30A100B230A0008312230820
:1010E0008316A700831222088316A6008312210804
:1010F0008316A500831220088316A4008A11831288
:1011000028228A1523088316A30083122208831637
:10111000A200831221088316A100831220088316DF
:10112000A0008A1183123B248A152308ED002208AF
:10113000EC002108EB002008EA0000343308F60038
:101140003208F5003108F4003008F3007108B300EC
:101150007008B2006F08B1006E08B0008A11442612
:101160008A157108B7007008B6006F08B5006E08E0
:10117000B4006908FA006808F9008A114E268A1539
:101180002308BF002208BE002108BD002008BC00C3
:101190008A11D2278A15851CD5283F08BB003E0836
:1011A000BA003D08B9003C08B8003308B70032085F
:1011B000B6003108B5003008B4004220851809296E
:1011C0006B08DB006A08DA003F088316A30083126D
:1011D0003E088316A20083123D088316A1008312E5
:1011E0003C088316A0008A1183120D238A15220859
:1011F000DD002108DC000230DA020030031C01307F
:10120000DB027608B3007508B2007408B1007308F9
:10121000B000003403171F109F101F119F110313FC
:101220001F13503003179E00831603131F129F16BF
:101230001F1383129F171F14FF308316850007307A
:1012400086008700033095008113831203179501F0
:1012500099019A0183169E0183129B0103138D123B
:1012600003179901A1309A0083169E0183129B01F6
:1012700003138D1283160108C73928388100053001
:10128000831290000030A10092000030831692007B
:1012900083129412831687130616061301308312E5
:1012A00094000030831694008612831286128316EF
:1012B00006160613831206138316861383128613EB
:1012C0000F308316A0008A118312DA208A15F301E9
:1012D00073197A2903308316B4008A118312EE2021
:1012E0008A1505308316A0008A118312DA208A1528
:1012F000F30A682902308316B4008A118312EE20A3
:101300008A158316AD018A1183124E218A150A307F
:101310008316A0008A118312DA208A158316B10180
:101320004030B2008A11831229218A159E3083161B
:10133000AD008A1183124E218A157130AF00AE01C3
:101340008D308316AD008A1183124E218A158A11C1
:101350009D218A158518B7296B308316AD008A1137
:1013600083124E218A158A11A7218A15AA29051CE4
:10137000C4295A308316AD008A1183124E218A1572
:101380008A11A7218A15B729F201721ADA295A306F
:10139000720784008313EF307207F5007508031796
:1013A0008D0083168C130C1483120C088000F20A33
:1013B0000313C5294F111830A1001F08C339210498
:1013C0009F008A1162248A15ED01EC014508EB00AB
:1013D0004408EA002A30D2000730D7001130D1008B
:1013E000AE015010D5018A1179258A159E20450835
:1013F000EB004408EA00AE0A1130D1003030D200D0
:101400008A1179258A158A119D218A158A156C2FD2
:10141000FA01C7010330C6009F149F180D2A8316D6
:101420001E088312C6071E0803181E0FC707FA0AF4
:101430007A08303C03180C2AF830C6050034C30182
:10144000C201D9010F30D8004F14CF104E08183CFC
:101450000318632A4E082B3C031C632A0130CA0080
:101460004B08023C0318382A0330CB02CA0A302A40
:101470001030A1001F08C33921049F0083160113F7
:1014800083120B16C0308B0496308316A0008A118D
:101490008312DA208A150B138B138B1B4C2A0B1229
:1014A000D90CD80CD90CD80CD90CD80CD90CD80C18
:1014B000D90CD80C0730D905D908031D622A580861
:1014C0001E3C031CCF140034F4015308F3008A11AE
:1014D00044268A157308D3003308F8003208F70051
:1014E0003108F6003008F5003708B3003608B200BE
:1014F0003508B1003408B0007108B7007008B600B4
:101500006F08B5006E08B4006908FA006808F900B1
:101510008A114E268A152308BF002208BE00210822
:10152000BD002008BC008A11D2278A157808B300B4
:101530007708B2007608B1007508B00000340130B9
:10154000AE0059308316AD008A1183124E218A15E0
:10155000AE018A11A7218A15CF1CB12B051CB12B16
:101560008519DC2A0518BB2A69082E3C031CBB2AF6
:10157000E80A0319E90A8518C52A6908223C0318F4
:10158000C52A68080319E903E8034630D700A20119
:10159000A3012308ED002208EC006908EB006808AD
:1015A000EA002430D2000230D1008A1179258A1550
:1015B0008A11A7218A15B02A1830A1001F08C33943
:1015C00021049F0083160612831206163A30A000EB
:1015D000A00BE82A082247081B3C03180B2BED013F
:1015E0002330EC00F330EB000130EA0047088316AB
:1015F000AE00831246088316AD008A1183121B24A5
:101600008A152F30EA020030031C0130EB026B0810
:10161000E3006A08E20083160616F4308312D7004E
:101620000F30D100ED01EC016308EB006208EA0025
:101630005430D20050108A1179258A158A119D21C3
:101640008A155A308316AD008A1183124E218A15ED
:10165000051C2E2B8A11A7218A15282B8A1162249A
:101660008A158A11A7218A154E082B3C0318532B83
:101670009E204F1159308316AD008A1183124E21DE
:101680008A15851C4B2BE4308316AD008A1183121A
:101690004E218A15522BDF308316AD008A1183123A
:1016A0004E218A15872B5908DF005808DE001F22BB
:1016B0005908E1005808E00064223F08E7003E08AE
:1016C000E6003D08E5003C08E4005630D7000B304A
:1016D000D1004830D2005010ED01EC016108EB0060
:1016E0006008EA008A1179258A158A119D218A15D8
:1016F0000730D7001130D100ED01EC014508EB00B7
:101700004408EA004E30D2008A1179258A15F20188
:10171000721AB02BEF307207F3005A307207840050
:1017200083130008F400730803178D0074088C00FD
:1017300083168C130C15831203130B08A0008B1354
:101740008316031755308D00AA308D008C148C1829
:10175000A72B0C118312031320088B04F20A882B89
:10176000B82B7C308316AD008A1183124E218A1566
:101770008A119D218A158A15902FF801F901CF1B36
:10178000442D4F1B442D1830D2004F11A1001F08CB
:10179000C33921049F0083160612831206120230F9
:1017A000FA00FA308316A0008A118312DA208A1513
:1017B000FA0BD12B8316061623308312A000A00B40
:1017C000DF2B08224708F3004608F200F31B232D05
:1017D00010307207F4007308F50027300318283022
:1017E000F5077508FB007408FA00FD013130FC00B4
:1017F000A101A201A001A3017D08031D022C7C0808
:1018000003191C2C1030FE000310FA0DFB0DA00D67
:10181000A30D7D082302031D0F2C7C082002031C4E
:10182000182C7C08A002031CA3037D08A302031448
:10183000A10DA20DFE0B042C2208F5002108F400D6
:101840008316061283120616F80A0319F90A9F1462
:101850009F18282C83161E08F60083121E08F70016
:10186000791B3C2C77087502031C3C2C031D242C8F
:1018700074087602031C242C831606168312082291
:101880004708F5004608F4007208F60001307307B7
:10189000F700791F552C75087702031C552C031D82
:1018A000542C76087402031CCF17F908031D5C2C16
:1018B0007808023C0318232D4F1550140630D10030
:1018C0004630D7007508F7007408F6008A11A72182
:1018D0008A1508224608F6024708031C470FF7023C
:1018E000F70CF60CF70CF60CF70CF60CF70CF60CE4
:1018F0000F30F705D601F719932CF708031D842C38
:101900007608633C0318872CF7016330F6004F1DFF
:101910008C2C7608D500932C7608D600560B912C8B
:10192000D6010310D60D0430CF064708F70046084D
:10193000F6004F1D662C560855020318A12C3630B0
:10194000D2003030D6005508093C0318AB2C0A30C1
:10195000D502D60AA32C3030D5075608303C031DDB
:10196000B52C5508D6002030D5007208F402730853
:10197000031C730FF5027208CF3CEA00C330EB0082
:101980007308031C730FEB02EC01ED015B3083164F
:10199000A1006830A0008A118312AD218A15750854
:1019A0008316AE007408AD008A1183121B248A15B9
:1019B000D430EA023030031C3130EB020030031C1B
:1019C0000130EC020030031C0130ED026308831685
:1019D000AE00831262088316AD008A1183121B24A5
:1019E0008A1579088316A1007808A0008A1183124D
:1019F000AD218A152E30EA020030031C0130EB02C3
:101A00000030031C0130EC020030031C0130ED02F9
:101A1000ED08031D232DEC08031D232D6B08033C4B
:101A2000031C232D031D182D6A08E73C031C232DDE
:101A300003308316A100E830A0008A118312AD2183
:101A40008A150330D1008316061283120612053060
:101A50008316A0008A118312DA208A1508228316C1
:101A60000616791F452D7308003C031C452D75088B
:101A7000003C0318452D83124708003C0318422DF3
:101A80008316452DCF134F17831683128A15952F72
:101A9000F601F70100202008F8002108F9002208CB
:101AA000FA002308FB008316A3007A08A200790835
:101AB000A1007808A00083123B088316A7008312B8
:101AC0003A088316A600831239088316A5008312EC
:101AD00038088316A4008A11831236238A15230836
:101AE0008316A300831222088316A2008312210802
:101AF0008316A100831220088316A0008A11831286
:101B00003B248A152308ED002208EC002108EB0095
:101B10002008EA006D08F5006C08F4006B08F3007B
:101B20006A08F200F408031D992D7308203C03187D
:101B3000E92DF508031DE92DF5010F30F2007208BB
:101B4000043C0318DB2DF508031DB82D7408A30011
:101B50007308A2007208A0000319B32D0310A30C90
:101B6000A20CA00BAE2D2208221CB82D0130F500CE
:101B7000F5080319D92D7308EA027408031C740FC1
:101B8000EB020030031C0130EC020030031C01307A
:101B9000ED02A3010130A2007208A0000319D52DA7
:101BA0000310A20DA30DA00BD02D2208F6042308CC
:101BB000F704F2039F2D7608EA0777080318770FDA
:101BC000EB07003003180130EC0700300318013038
:101BD000ED070630D2000230D1004630D7008A151A
:101BE000972FCF111230D2004F1A2F2E4508033CE9
:101BF000031C1F2ECF1E1B2ECF1264223F088316FC
:101C0000A30083123E088316A20083123D088316A8
:101C1000A10083123C088316A0008A1183120D23B1
:101C20008A152208C9002108C8005C08C8025D089E
:101C3000031C5D0FC902CF154230D2002E2E5D0865
:101C4000FA005C08F9008A114E268A152308BF00A5
:101C50002208BE002108BD002008BC00582E6708DD
:101C6000BF006608BE006508BD006408BC008310A4
:101C700037088316A300831236088316A200831246
:101C800035088316A100831234088316A000A7012B
:101C9000A601A501A4018A1183126B268A152308C7
:101CA000B7002208B6002108B5002008B40050147F
:101CB000CF1CCF1142205A08EA025B08031C5B0FBD
:101CC000EB020030031C0130EC020030031C013039
:101CD000ED020730D1004830D7008A15B72FFA013E
:101CE0005F085902031C832E031D7A2E58085E02DA
:101CF0000318832E5F08F7005E08F6005908F90004
:101D00005808F8008B2E5F08F9005E08F8005908A3
:101D1000F7005808F6005908F3005808F2001F228F
:101D2000CF1C502F5014ED01EC016108EB0060084E
:101D3000EA0079088316A1007808A0008A118312AE
:101D4000AD218A1577088316AE007608AD008A119A
:101D500083121B248A156B08F5006A08F400ED0154
:101D6000EC015B08EB005A08EA005B088316A1004F
:101D700083125A088316A0008A118312AD218A1596
:101D80006C08EA006D08EB00EC01ED015F088316BA
:101D9000A10083125E088316A0008A118312AD2170
:101DA0008A1575088316AE007408AD008A11831277
:101DB0001B248A1558087402F2007508F3005908AC
:101DC000031C590FF30275085902031CF82E031D5A
:101DD000ED2E580874020318F82E0130FA0074082A
:101DE0005802F2005908F3007508031C750FF3023E
:101DF00073088316A1007208A0008A118312AD2116
:101E00008A154F1F372F6D088316B20083126C0896
:101E10008316B10083126B088316B00083126A0820
:101E20008316AF00B6010330B5002030B400B30113
:101E30008A118312D5238A152108F3002008F200A5
:101E400059087302031C2A2F031D292F58087202F8
:101E50000318CF107208D8027308031C730FD9023D
:101E6000D908031D372F58081D3C0318CF105908F7
:101E70008316AE00831258088316AD008A118312B0
:101E80001B248A15FA080319502FEA09EB09EC09FB
:101E9000ED09EA0A0319EB0A0319EC0A0319ED0A22
:101EA0008A15C32F840183131F30830503171F1066
:101EB0009F101F119F1103131F13003003179E0063
:101EC00099019A0183169E0183129B0103138D12BF
:101ED000FF30AE00AF010A298A1162248A15710809
:101EE000B7007008B6006F08B5006E08B400D31CC8
:101EF0007B2FD30A772F531053085402031D842FCE
:101F0000D018CF16D010852FD0145308D4004E0807
:101F10002B3C03188E2FCF134F134F1105189F2AF8
:101F2000851C982F4F12CF11BD2B4F1D482DB72F59
:101F30004F1AA92FC508031DA92F4408633C031C91
:101F4000A92FCF1CA92F83160612831206124F1633
:101F5000B62F4F1EB62FC508031DB22F4408143CE0
:101F60000318B62F8316061683124F12F12DAE01F9
:101F7000CF1BBF2F4F1BBF2F8A1179258A15AE0AA1
:101F80004F1DD72F6F2EF430D7000B30D1001E30ED
:101F9000D200CF1FCE2F3C30D200AE014F1FD32F27
:101FA000E930D200AE018A1179258A15EF2F46302B
:101FB000D7000230D100CF1DEE2FA201A3012308CC
:101FC000ED002208EC004908EB004808EA00501434
:101FD0000C30D2008A1179258A15EF2FAE01AE0898
:101FE000031DFA2FAE0A59308316AD008A118312F1
:081FF0004E218A156C2F6300DD
:10420000280008000C0001000600FF002000050047
:10421000200043007800FF00200020002000430021
:104220007000FF002000060020004C007800FF0016
:1042300003002000430020006D00FF000400200068
:10424000450053005200FF0020004300630061005E
:104250006C00FF0020004600300020002000FF001E
:1042600020004600430061006C00FF000300430093
:10427000200073007A00FF0020000400200052009C
:104280007800FF000500060020004C007800FF00C9
:1042900055006500730072003000FF0020004600EA
:1042A000650073007200FF00200020002000520013
:1042B0006500FF00560000006C00740073002000D1
:1042C000610020006D0001007200010073007200A7
:1042D00065002100FF00560000006C0074007300B0
:1042E00020004300200000006C006C000000730000
:1042F000620061002100FF004B0061006C0069005A
:104300006200720000006C00000073002000680072
:104310006900620061002100FF00210019006F00A8
:1043200076001400690061000F000E007E001E0080
:104330005B0047001F001C000200FF000200040099
:104340000E0001000F0011000F0000000200040029
:104350000E0011001F0010000E0000000000000001
:1043600013001400140014001300000004001F00C8
:1043700011001F0000001F000400000004000E00D8
:104380000A000A000A000E000400000004000400F5
:104390001F0000001F0004000400000008001D00B2
:1043A0001D001D001D001D0008000000120012006D
:1043B00012001F001100120017000000FF004C0047
:1043C0002D003E003000FF0043002D003E00300075
:1043D000FF0002002D00450053005200FF00F200D4
:1043E0002500D9002800F600350036000400F20050
:0E43F000000091001D0012004000F2002600A7
:041FFC0000000000E1
:02400E00C23CB2
:00000001FF
;PIC16F690
