:100000000F308A00592F0000FF00030E8301A50066
:100010007F08A4000A08AB008A01A40E0408A60009
:100020002008A7002108A8002208A9002308AA0088
:10003000831383120B1E1E288B1839288C308400E2
:10004000001C24280C183B288B1E28280B193D283F
:10005000260884002708A0002808A1002908A2007B
:100060002A08A3002B088A00250E8300FF0E7F0EAE
:1000700009008A1173288A116F288A114A280A10E8
:100080008A100A11820770346E3475346D3420344E
:100090006B340034521C53288F018E01C801C030CC
:1000A000810052106C280F08A3000E08A0000F0852
:1000B0002302031D53282008C0002308C100C90AD9
:1000C0004808073C03186C28D2144108003C031868
:1000D0006C2883160C1083120B118A112828C80A69
:1000E0000C108A1128280B1246088316BC00BC0B82
:1000F0007728831253187C28D31C8028000080287E
:10010000000042088316BC003C0883124702031813
:1001100089288316BC1C8E2800008E283C1D94283C
:100120000000000000009428000083124218A82854
:1001300000009F149F189A2883161E088312D40764
:100140001E0803181E0FD50783160117B528831242
:100150009F149F18A92883161E088312D4021E0814
:10016000031C1E0FD502831601138312C20A031942
:10017000C30AD51EBF28551EBF28CE0AD512430874
:100180000E3C031CC928031DC82842087F3C0318E5
:100190000B168B108316BC0183128B18D72883167D
:1001A000BC1ED4288312D728BC0ACC2883128B10FB
:1001B0008A11282879308400831300080319ED2858
:1001C0000630A100A001A00BE328A10BE2287B30A0
:1001D000A000A00BE928800BE02808008316321845
:1001E000F52883128713F72883168312871783163F
:1001F0008713B218FF28831207130129831683126D
:1002000007178316071332190929831287110B293F
:1002100083168312871583168711B2191329831247
:1002200087121529831683128716831687120330C7
:100230008312A000A00B1A29831686138312861737
:100240000330A000A00B2229831686138312861385
:10025000080083160613831206136330A000A00B58
:100260002F2932298316AF0803193A29061383125E
:1002700006178316300EB1000F30B1053108B200F9
:100280008312EE20831630080F39B100B2008312BA
:10029000EE200330A000A00B4B29AE08031D54290B
:1002A0008316061383120613080080308316AE00EF
:1002B00083122C0F5C296829AC0803196229831664
:1002C0002E1783128316AF012E08B0008312292146
:1002D0002F088316AD002D08831203178D00831697
:1002E0008C130C1483120C0883160313AC002C0F10
:1002F0007A29902983122D088316AC0683122F08C1
:100300008316AF002C08B00083122921AD08031911
:100310008D2983162C088312AD008316AD0A6B2934
:1003200083122F0883162D02031DA229AD012D1A59
:10033000A2290130AF002030B0008312292183169A
:10034000AD0A972983122D08493C0319AD01080015
:100350000830F300FA30F900DA20F30BAA2908007C
:100360006430F900DA2008005521B021AE08031DE1
:10037000AE0308006D08FD006C08FC006B08FB0074
:100380006A08FA008316A301A2017908A10078087F
:10039000A0002030A800A401A501A601A7017D08A6
:1003A0008312A3007C08A2007B08A1007A08A000A9
:1003B0000310201CEB2983162008A407210803182A
:1003C000210FA50722080318220FA60723080318E8
:1003D000230FA70783128316A70CA60CA50CA40C49
:1003E0008312A30CA20CA10CA00C8316A80BF92954
:1003F000FB298312D82983122308ED002208EC0080
:100400002108EB002008EA000800B630A000A30194
:10041000A201A1017708780479047A04031D122A45
:10042000A0011F2A0310A11B1E2AF70DF80DF90DBC
:10043000FA0DA30DA20DA10DA00B122AA113080005
:100440007808EA027908031C790FEB020030031CDC
:100450000130EC020030031C0130ED020800770887
:100460000319122B8316A4007B08031D392A83125B
:10047000122BA402031C432A7F30A407031C422A28
:100480008312122B4D2A8130A4020318492A8312A9
:10049000122B031D4D2A8312122B24088312A00055
:1004A000A101A201A3018316A3017808A200A2174B
:1004B0007908A1007A08A0001930A4007E08A002E3
:1004C0000318722A0130A1020318722AA20203182B
:1004D000722AA3020318722AA30AA20AA10A7E089A
:1004E000A007A62A7D08A10203188D2A0130A202C6
:1004F00003188D2AA30203188D2AA30AA20A7D08D5
:10050000A1077E08A007031CA62AA10A031DA62A8C
:10051000A20A031DA62AA30AA62A7C088038A202E2
:100520000318A32A0130A3020318A32AA30A7C08F4
:100530008038A2077D08A107031C812AA20A031D97
:10054000812AA30A812A831223148316A40BA92AC1
:10055000B62A0310A00DA10DA20DA30D0310831246
:10056000A30DA20DA10D8316A50D5E2A251CC02A80
:1005700003108312A10CA20CA30C8316A50CC52A90
:100580008312A0030319122B8316A51BEE2A031056
:10059000A00DA10DA20DA30D7E08A0020318DA2A5A
:1005A0000130A1020318DA2AA2020318DA2AA302F0
:1005B000031C052B7D08A1020318E52A0130A202C5
:1005C0000318E52AA302031C052B7C088038A2022D
:1005D0000318EE2A0130A302031C052B8312A30A81
:1005E0000319F42A8316052BA20A0319F92A831684
:1005F000052BA10A0319FE2A8316052BA00A03194D
:10060000122BA10CA20CA30C83167808A4007C0862
:10061000A406A41F0F2B8312A117162B8316831277
:10062000A113162BA001A101A201A30108007708C4
:100630000319AE2B8316A0007B08031D212B831208
:10064000AE2BA00703182F2B7F30A00203182A2BF4
:100650008312AE2B031D2E2B8312AE2B352B813034
:10066000A007031C352B8312AE2B20088312A00099
:10067000A101A201A30178088316A400A417790898
:10068000A3007A08A2001830A000A101221C6B2B45
:100690007E088312A307031C562BA20A031D562BA8
:1006A000A10A031D562B8316A11783127D08A207EA
:1006B000031C602BA10A031D602B8316A117831254
:1006C0007C08F900F9177908A107031C6A2B831627
:1006D000A11783128316A10D8312A10CA20CA30CE7
:1006E0008316A40CA30CA20C0310A00B452B013005
:1006F0008312A0070318AE2BA11B872B8316A40D12
:100700008312A30DA20DA10DA0030319AE2B831616
:10071000A41FA12B8312A30A0319902B8316A12BCC
:10072000A20A0319952B8316A12BA10A03199A2B50
:100730008316A12BA10CA20CA30CA00A0319AE2BAB
:1007400083167808A1007C08A106A11FAB2B831299
:10075000A117B22B83168312A113B22BA001A10102
:10076000A201A301080080308318FC068316A201B1
:10077000A3017808A1007C08A10677080319BB2C07
:10078000A0008312A0007B080319C72C8316A002C7
:100790000319552C031C0D2C7C08A600A6177D08F8
:1007A000A5007E08A400A3010310A60CA50CA40CB0
:1007B000A30CA00BD32BA11FE02B2214E22C2210A0
:1007C000201022167A3084008313F72C2212A11BEA
:1007D000F52B201C022CA60CA50CA40CA30C831238
:1007E000A00A0319DC2C8316022CA61B052C03106F
:1007F000A30DA40DA50DA60D8312A0030319DC2CD7
:100800008316F52B2217772C22137808A100A11F3D
:100810000B2CA617D02CA613D02C7B08A00083127B
:10082000A00077088316A0027808A600A61779080A
:10083000A5007A08A400A3010310A60CA50CA40C23
:10084000A30CA00B1B2CA11F282CA214E22CA2107D
:100850002010A2167E3084008313F72CA212A11B55
:100860003D2C201C4A2CA60CA50CA40CA30C831216
:10087000A00A0319DC2C83164A2CA61B4D2C03104E
:10088000A30DA40DA50DA60D8312A0030319DC2C46
:1008900083163D2CA217772CA2137C08A100A11F60
:1008A000532CA617D02CA613D02C7C08A600A61774
:1008B0007D08A5007E08A400A11F622CA6132215A6
:1008C000E22C2211A30120107A3084008313F72C2C
:1008D000A11B8F2C7808A100201C772CA60CA50C3E
:1008E000A40CA30C8312A00A0319DC2C8316A31FEB
:1008F0008A2CA40A031D8A2CA50A031D8A2CA60A89
:10090000031D8A2CA60CA50CA40C8312A00A0319A3
:10091000DC2C8316221B042CA21B4C2CB52C803003
:10092000A606A61F972CE22C7C08A100A62C78080E
:10093000A100A608031DA62CA508031DA62CA4082B
:10094000031DA62C8312A0018316D02CA61BB52C48
:100950000310A30DA40DA50DA60D8312A00BB12CA1
:10096000B32C8316A62CDC2C8316A11FB92CA6173A
:10097000D02CA613D02C7B088312A0007C088316F1
:10098000A6007D08A5007E08A400D02C831277085D
:10099000A00078088316A6007908A5007A08A400AC
:1009A00026088312A100831625088312A20083164D
:1009B00024088312A300162DA001A101A201A30106
:1009C000162D8316A301A409A509A609A309A30A44
:1009D000031DF02CA40A031DF02CA50A0319A60A76
:1009E0002218DF2BA218272C2219612C942C000826
:1009F000A407031C012DA50A031D012DA60A031936
:100A0000201484030008A507031C092DA60A031956
:100A1000201484030008801F803AA60703182014BE
:100A2000221AE62BA21A2E2C682C831208006D08BD
:100A30008316B10083126C088316B00083126B0812
:100A40008316AF0083126A088316AE00B501B401A5
:100A50002D08B3002C08B2008312A001A101A2014D
:100A6000A3018316B601B701B801B90135083404F2
:100A70003304320403196E2D2030BA000310AE0D7A
:100A8000AF0DB00DB10DB60DB70DB80DB90D3508E0
:100A90003902031D552D34083802031D552D330826
:100AA0003702031D552D32083602031C662D32080D
:100AB000B6023308031C330FB7023408031C340F8B
:100AC000B8023508031C350FB90203148312A00DB8
:100AD000A10DA20DA30D8316BA0B3E2DB6308400D6
:100AE000831383122308ED002208EC002108EB0099
:100AF0002008EA0008007708B63CF700A301780850
:100B0000FB00F8170310F80CF90CFA0CA30CA20C5C
:100B1000A10CA00CF70B822DFB1F992DA009A10998
:100B2000A209A309A00A0319A10A0319A20A031919
:100B3000A30A0800B021F101F001EF01EE01521407
:100B4000D210C501C401FF30C900C801FE308100C8
:100B50008F018E010B1183160C1483128B16C0307B
:100B60008B043230F900DA205218C32D521EBD2DED
:100B7000D218BC2DC81FB82DC32DD218C32D4808BC
:100B8000273C0318BD2D0B138B138B1BC42D8B120D
:100B900083160C108312D21CBF2EF4014908F300F7
:100BA000F30DF40DF30DF40DFC30F305F30A031906
:100BB000F40AED013030EC00D430EB00EA017408A7
:100BC000F9007308F800BA216D08FA006C08F90002
:100BD0006B08F8006A08F70005222308F1002208D4
:100BE000F0002108EF002008EE00ED014808EC00BD
:100BF0004008EA004108EB00F9013630F8002022F5
:100C00006D08FA006C08F9006B08F8006A08F70034
:100C100005227108FA007008F9006F08F8006E08E4
:100C2000F7002308FE002208FD002108FC00200830
:100C3000FB002F222308F1002208F0002108EF001A
:100C40002008EE007108F8007008F7006F08F60041
:100C50006E08F5008E30A0007508A0027608A2008C
:100C60007708A100A217A0080319412E0310A208BB
:100C7000031D3D2EA1080319412EA20CA10CA00BAF
:100C8000362EF61F482EA109A209A10A0319A20AAD
:100C90002208C5002108C4007108FA007008F90094
:100CA0006F08F8006E08F7007108FE007008FD007C
:100CB0006F08FC006E08FB0017232308F1002208D0
:100CC000F0002108EF002008EE00521E812E831054
:100CD0007108FA007008F9006F08F8006E08F70054
:100CE0009A30FE009930FD001930FC007E30FB0088
:100CF000B3232308F1002208F0002108EF002008A8
:100D0000EE00F9010730F800BA2174088316AD002F
:100D10007308AC00831217256B08C7004430C70264
:100D20005310D3100130C6004708023C03189C2E14
:100D30000330C702C60A942E47185314C718D31499
:100D40006A08C700F830C7057108FA007008F90092
:100D50006F08F8006E08F7007B252308ED002208D5
:100D6000EC002108EB002008EA008316AD013730C3
:100D7000AC00831217256B08D5006A08D400080060
:100D8000EA09EB09EC09ED09EA0A0319EB0A031970
:100D9000EC0A0319ED0A08000730F300203083162F
:100DA000A000A100A200A300A400A500A6003F305F
:100DB000A7002030A800A900AA00AB018312531D90
:100DC000E62E3D308316A200E92E83123D308316B5
:100DD000A10083125312ED1FEF2E5316C026AC084C
:100DE000031D4D2F6D08FA006C08F9006B08F80020
:100DF0006A08F700F4015219FF2E0430F400FA08D3
:100E0000031D102FF908031D102FF808031D102FC4
:100E10007708103C031C102F7408063C031C172F86
:100E20000310FA0CF90CF80CF70CF40AFF2E07303B
:100E3000F402F40E7708F407D218202FFF30F400E4
:100E40000230CF077408CF02AE080319312F4030AB
:100E5000D306531B2D2F8030D306531F312FD31BA6
:100E6000AE034F08043C03184B2F2E085002CF004E
:100E7000CF0CCF0C3F30CF05CF080319462F0310FE
:100E8000CF0C500F442F452FD00A3C2FAE0803192A
:100E90004B2F5008AE007408CF00D21CCD2FED08A8
:100EA000031D602FEC08031D602F6B08263C031800
:100EB000682FFF3A031D602F6A080F3C0318682F44
:100EC0008316AD010A30AC0083121725CA0A4F2FD2
:100ED000F4014A08023C0318712F0330CA02F40AD5
:100EE000692F0430CA075319CA0A4A08073C031974
:100EF000CA0173084A02031D852F7308F303A03E3D
:100F0000840083132E308000CA01F601F501EB083E
:100F1000031D8E2F6A08093C0318982F0A30EA0235
:100F20000030031C0130EB02F50A0319F60A872F83
:100F30007308F303A03E8400831330306A078000F7
:100F4000531DA52F0730F30053117608EB007508E9
:100F5000EA006A086B04031D792FCA08031D792F64
:100F60007308073C0319F303531EBC2FA03073070B
:100F7000840083132D30800074083F20A100831665
:100F8000A9008312CD080319CD2F4E088316A000A7
:100F900083124D088316A100831251088316AA00FC
:100FA0008312CD014B08AF005521F30173080A3CB1
:100FB000031CE92FA0307307840083130008FB0093
:100FC00001308316AF007B08B00083122921F30A99
:100FD000D62F08000230F800FA30F900DA20F80BBA
:100FE000EC2F08008316861283128616EA279A25AC
:0A0FF0008316861283128612080091
:101000007108B7007008B6006F08B5006E08B4002C
:1010100008003308FA003208F9003108F8003008F7
:10102000F7003708FE003608FD003508FC003408DC
:10103000FB008A112F228A152008F3002108F400F2
:101040002208F5002308F60083142308FA0022087A
:10105000F9002108F8002008F700FE01FD01FC015D
:101060007F30FB008A11B3238A150800092020086D
:10107000F3002108F4002208F5002308F6003F08D9
:10108000FA003E08F9003D08F8003C08F7008A1114
:1010900005228A152308FA002208F9002108F80021
:1010A0002008F7007608FE007508FD007408FC00B3
:1010B0007308FB008A112F228A152308FA002208E0
:1010C000F9002108F8002008F7008A117B258A150D
:1010D0002308BF002208BE002108BD002008BC0074
:1010E0000800521E7C28B130F6006030F5006630F2
:1010F000F400AE30F30084286F30F600FC30F500C9
:101100000F30F400B230F3003F08FA003E08F90057
:101110003D08F8003C08F7008A1105228A152308CB
:10112000FA002208F9002108F8002008F700370823
:10113000FE003608FD003508FC003408FB008A116B
:1011400017238A157608FA007508F9007408F80064
:101150007308F7002308FE002208FD002108FC00A8
:101160002008FB008A112F228A152308FA00220882
:10117000F9002108F8002008F7008A117B258A155C
:101180002308ED002208EC002108EB002008EA000B
:1011900008003308D9003208D8003108D7003008D9
:1011A000D6007108B3007008B2006F08B1006E0875
:1011B000B0008A11F2278A150020BF01BE0169081C
:1011C000BD006808BC0036203308B7003208B600FE
:1011D0003108B5003008B400851C02293F08FA0028
:1011E0003E08F9003D08F8003C08F7008A11052286
:1011F0008A152308BB002208BA002108B90020087C
:10120000B8000A295908B3005808B2005708B100BD
:101210005608B000712085181C296B08DB006A088D
:10122000DA005A080319DB03DA033D08DD003C0845
:10123000DC00DC0A0319DD0A0800F8012330A000F5
:10124000A00B2029D7010330D6009F149F18262910
:1012500083161E088312D6071E0803181E0FD70711
:10126000F80A7808303C03182529F830D60508001C
:101270005930AF008A1155218A15080003171F1035
:101280009F101F119F1103131F13703003179E002F
:10129000831603131F129F161F1383129F171F1409
:1012A000FF308316850007308600870003309500E5
:1012B000811383120317950199019A0183169E01E8
:1012C00083129B0103138D1203179901A1309A0019
:1012D00083169E0183129B0103138D12831601084E
:1012E000C739283881000530831290000030A100F2
:1012F0009200003083169200831294128316871393
:1013000006160613013083129400003083169400F1
:1013100018308312A1001F08C33921049F008316CF
:101320008612831286128316061283120612831601
:1013300006138312061383168613831286130F3047
:10134000F9008A11DA208A15F3017319B5290330DF
:101350008316B2008A118312EE208A150530F90037
:101360008A11DA208A15F30AA52902308316B20001
:101370008A118312EE208A15AF018A1155218A1530
:101380000A30F9008A11DA208A15FF30AC00831682
:10139000AF014030B0008A11831229218A15A6308E
:1013A000AF008A1155218A158316061671308312F3
:1013B000AD00AC019530AF008A1155218A158A1114
:1013C000A8218A154030D000FF30AE00051CEE2960
:1013D0005A30AF008A11B4218A15E6298518F629FA
:1013E0006B30AF008A11B4218A15EE294030AE006F
:1013F000F20172080F3C031C102A5A307207840055
:101400008313F0307207F500750803178D008316FB
:101410008C130C1483120C088000F20A0313F929B0
:101420008A119A258A15ED01EC014508EB00440864
:10143000EA002A30CB002030D1001130CA0053110D
:10144000CD018A11CC268A15C9204508EB00440835
:10145000EA00AC0A1130CA003030CB008A11CC2629
:101460008A158A11A8218A151430A1001F08C339D2
:1014700021049F001D215708C3005608C20083168F
:101480008612831286160A30F9008A11DA208A152C
:101490001D2183168612831286121830A1001F08A0
:1014A000C33921049F0043085702031C642A031D0B
:1014B0005D2A560842020318642A4208D6024308ED
:1014C000031C430FD702662AD701D601D708031D94
:1014D0006D2A56087F3C03187C2AAC013821E7307E
:1014E000AF008A1155218A15AC0A38218A11A8212A
:1014F0008A158A11A8218A158A15712FC301C20184
:10150000D5010F30D400CD01CE01D2104908183CCE
:101510000318C42A49082B3C031CC42A1030A1001C
:101520001F08C33921049F008316011383120B1671
:10153000C0308B046430F9008A11DA208A150B134D
:101540008B138B1BA02A0B121830A1001F08C33964
:1015500021049F00D50CD40CD50CD40CD50CD40C84
:10156000D50CD40CD50CD40C0730D505CE080319F6
:10157000BD2A0130D507CE03B62AD508031DC32ADC
:1015800054081E3C031CD214080083160612831252
:10159000061252168A119A258A1508008316061615
:1015A0008312521208003308D9003208D8003108DB
:1015B000D7003008D600D211C5224408CE00450815
:1015C000003C0318E52AFF30CE00CE080319CE0AEE
:1015D000D21CCE01CE228A119A258A15450CA30071
:1015E000440CA200A30CA20CA30CA20C2208CD0058
:1015F0004508073C0318FE2AFF30CD00CD0803192B
:10160000CD0AD21CCD01CE0803191D2B4E083B3C40
:10161000031C1D2B4E08173C0318122B4D084E02BD
:1016200003181D2B4E08073C031C1A2B4D08103CB9
:10163000031C1D2BC522CD01D2140020CD08031997
:10164000232BD214CE014E08073C031C2E2B4D0831
:101650007F3C031C422BCD080319422B3708B300F3
:101660003608B2003508B1003408B0008A11F227FC
:101670008A150020BF01BE016908BD006808BC00D2
:101680003620D2155908B3005808B2005708B100E7
:101690005608B000CD0108000130AC003821AC0183
:1016A0008A11B0218A15D21C5A2C051C5A2C851976
:1016B000852B0518622B69082E3C031C622BE80A57
:1016C0000319E90A85186C2B6908223C03186C2B56
:1016D00068080319E903E8034630D100A201A30119
:1016E0002308ED002208EC006908EB006808EA0016
:1016F0002430CB000230CA005008AE008A11CC263C
:101700008A158A11B0218A15572B83160612831267
:1017100006163A30A000A00B8B2B1D2157081B3C4E
:101720000318B92BED012330EC00F330EB0001304E
:10173000EA0057088316AD00831256088316AC00E2
:101740008A11831217258A15F9013030F8008A11A1
:1017500020228A156A086202031DB22B6B086302FD
:101760000319B92B6B08E3006A08E200E20A0319C7
:10177000E30A8316061607308312D1000F30CA0021
:10178000ED01EC016308EB006208EA005430CB0085
:1017900053118A11CC268A158A11A8218A155A302C
:1017A000AF008A1155218A15FF30AE00051CDE2BD3
:1017B0005A30AF008A11B4218A15D62B5008AE00DA
:1017C0008A11A8218A158A119A258A1549082B3C65
:1017D0000318F82BC92052113821851CF22B9030A8
:1017E000AF00F42B8B30AF008A1155218A152E2CB7
:1017F0005508DF005408DE007E225508E100540839
:10180000E000D3223F08E7003E08E6003D08E5007F
:101810003C08E4005630D1000B30CA004830CB0001
:101820005311ED01EC016108EB006008EA008A1138
:10183000CC268A158A11A8218A150130AC002030E7
:10184000D1001130CA00ED01EC014508EB0044085D
:10185000EA004E30CB008A11CC268A15F2017208BC
:101860000F3C031C592CF0307207F3005A307207FA
:10187000840083130008F400730803178D007408B4
:101880008C0083168C130C15831203130B08A00015
:101890008B138316031755308D00AA308D008C14DE
:1018A0008C18502C0C118312031320088B04F20A9D
:1018B0002F2C5F2C7C30AF008A1155218A158A119C
:1018C000A8218A158A158C2FA101A201A001A301CC
:1018D0007B08031D6E2C7A080319882C1030FC003D
:1018E0000310F80DF90DA00DA30D7B082302031DB5
:1018F0007B2C7A082002031C842C7A08A002031C8B
:10190000A3037B08A3020314A10DA20DFC0B702CF2
:101910000800C301C201D21BC32D521BC32D1830B6
:10192000CB00521183160612831206128A11EA277F
:101930008A158316061683121D215708F3005608D0
:10194000F200F31BA02D10307207F4007308F500AD
:10195000273003182830F5077508F9007408F800D7
:10196000FB013130FA0064242208F5002108F4005C
:101970008316061283120616C20A0319C30A9F149D
:101980009F18C02C83161E08F60083121E08F7004D
:10199000431BD42C77087502031CD42C031DBC2CCC
:1019A00074087602031CBC2C8316061683121D21B4
:1019B0005708F5005608F4007208F6000130730766
:1019C000F700431FED2C75087702031CED2C031D57
:1019D000EC2C76087402031CD217C308031DF42CE8
:1019E0004208023C0318A02D521553150630CA00B8
:1019F0004630D1007508F7007408F6008A11B0214E
:101A00008A151D215608F6025708031C570FF702C6
:101A1000F70CF60CF70CF60CF70CF60CF70CF60CB2
:101A20000F30F705CE01F7192B2DF708031D1C2DDC
:101A30007608633C03181F2DF7016330F600521D32
:101A4000242D7608CD002B2D7608CE004E0B292DA7
:101A5000CE010310CE0D0430D2065708F700560809
:101A6000F600521DFE2C4E084D020318392D36305B
:101A7000CB003030CE004D08093C0318432D0A300E
:101A8000CD02CE0A3B2D3030CD074E08303C031D31
:101A90004D2D4D08CE002030CD007208F4027308A1
:101AA000031C730FF502ED01EC01C330EB00CF30E6
:101AB000EA007308F9007208F8008A1120228A15DA
:101AC0005B30F9006830F8008A11BA218A15750870
:101AD0008316AD007408AC008A11831217258A158D
:101AE0003030F900D430F8008A1120228A156308BA
:101AF0008316AD00831262088316AC008A1183122C
:101B000017258A154308F9004208F8008A11BA21FE
:101B10008A15F9013130F8008A1120228A15ED0862
:101B2000031DA02DEC08031DA02D6B08033C031C16
:101B3000A02DF9010A30F8008A11BA218A15CA03CA
:101B400083160612831206120530F9008A11DA2074
:101B50008A151D21831606168312431FC22D730892
:101B6000003C031CC22D7508003C0318C22D570809
:101B7000003C031CC22DD21EC02DD212D210C22D89
:101B8000D2135217C62D8A11EA278A158A15932F68
:101B900009202008F2002108F3002208F40023089D
:101BA000F500FA002208F9002108F8002008F700E3
:101BB0003B08FE003A08FD003908FC003808FB002D
:101BC0008A1117238A152308FA002208F900210830
:101BD000F8002008F7008A117B258A152308ED00FC
:101BE0002208EC002108EB002008EA000630CB00B8
:101BF0000230CA004630D100F701F6016D08F50049
:101C00006C08F4006B08F3006A08F200F408031D86
:101C10000D2E7308403C0318562EF508031D562E52
:101C2000F5010F30F2007208053C0318482EF50844
:101C3000031D2C2E7408A3007308A2007208A000D4
:101C40000319272E0310A30CA20CA00B222E22088E
:101C5000221C2C2E0130F500F5080319462E7408BD
:101C6000F9007308F8008A1120228A15A3010130B7
:101C7000A2007208A0000319422E0310A20DA30DAA
:101C8000A00B3D2E2208F6042308F704F203132EBE
:101C90007608EA0777080318770FEB070030031878
:101CA0000130EC07003003180130ED078A15952F3D
:101CB0004830D1000730CA001230CB00D21E632E4C
:101CC000D218D212D322D219762E521E702E670845
:101CD000BF006608BE006508BD006408BC00762E23
:101CE000BF01BE015D08BD005C08BC007120D21DB3
:101CF0007B2E4230CB00521A8F2E8A11EA278A158A
:101D00005A08EA025B08031C5B0FEB020030031C5D
:101D10000130EC020030031C0130ED02912ECA0AA2
:101D200053158A15972F53125315ED01EC016108D5
:101D3000EB006008EA005F085502031CB12E031D8A
:101D4000A52E54085E020318B12E5508F900540858
:101D5000F8008A11BA218A155F08D5005E08D40000
:101D6000B82E5F08F9005E08F8008A11BA218A15BA
:101D700055088316AD00831254088316AC008A11EF
:101D8000831217258A155508F3005408F2004308FA
:101D9000F5004208F4007E227508C3007408C200F2
:101DA000D21C572F6B08F5006A08F400ED01EC0116
:101DB0005B08EB005A08EA005B08F9005A08F800D3
:101DC0008A11BA218A156C08EA006D08EB00EC0153
:101DD000ED017308F9007208F8008A11BA218A151A
:101DE00075088316AD007408AC008A11831217259C
:101DF0008A1554087402F2007508F3005508031C94
:101E0000550FF30275085502031C162F031D0C2FE6
:101E1000540874020318162F531674085402F20063
:101E20005508F3007508031C750FF3027308F900D9
:101E30007208F8008A11BA218A15521F462F6D08C0
:101E4000F3006C08F2007308F9007208F800FB0157
:101E50000330FA0064242208F3002108F200550838
:101E60007302031C392F031D382F54087202031804
:101E7000D2107208D4027308031C730FD502D50860
:101E8000031D462F54081D3C0318D2105508831615
:101E9000AD00831254088316AC008A1183121725F3
:101EA0008A15531E572F8A11C0268A15572F8A1557
:101EB000A32F840183131F308305AD0103171F1067
:101EC0009F101F119F1103131F13003003179E0053
:101ED00099019A0183169E0183129B0103138D12AF
:101EE0003E298A119A258A150020CC0A6F08CC0257
:101EF0004C08023C031C802FD319D216D311812F1A
:101F0000D3156F08CC0049082B3C03188A2FD21335
:101F10005213521105184C2B851C962F521E912FCF
:101F2000CE22D211892C521DC82D972F582EAC01CC
:101F3000D21B9F2F521B9F2F8A11CC268A15AC0AC9
:101F4000521DB72F932E0730D1000B30CA001E3020
:101F5000CB00D21FAE2F3C30CB00AC01521FB32FB1
:101F60008530CB00AC018A11CC268A15F32F463080
:101F7000D1000230CA00D21DF22F0C30CB003F0836
:101F8000ED003E08EC003D08EB003C08EA00521E64
:101F9000E32F53156408EA026508031C650FEB0282
:101FA0006608031C660FEC026708031C670FED024E
:101FB000ED08031DE22FEC08031DE22F6B083F3CE8
:101FC0000318D211EA2F5D08F9005C08F8008A11A5
:101FD00020228A15ED1BD211D21DF12F8A11CC2699
:101FE0008A15F32FAC01AC08031DF82FAC0A382179
:041FF000712F6300EA
:10420000280008000C0001000600FF002000050047
:10421000200043007800FF00200020002000430021
:104220007000FF002000060020004C007800FF0016
:1042300003002000430020006D00FF000400200068
:10424000450053005200FF0020004300630061005E
:104250006C00FF0020004600300020002000FF001E
:1042600020004600430061006C00FF000300430093
:10427000200073007A00FF0020000400200052009C
:104280007800FF000500060020004C007800FF00C9
:1042900055006500730072003000FF0046006500A5
:1042A000730072002000FF00200020002000520058
:1042B0006500FF0053007700690074006300680028
:1042C000200074006F0020004D0065006100730045
:1042D0002E002100FF0020004C0078002000740018
:1042E0006F0020004300780020006D006F00640024
:1042F000650021002000FF002000450072007200D0
:104300006F00720021002000FF0002002D00450018
:1043100053005200FF004C002D003E003000FF0013
:1043200043002D003E003000FF003D000F000E0056
:104330007E001E005B004700300021007000250059
:1043400011000D000A0010003A00FF0000000000FC
:104350000300040002000500090006001800080020
:10436000180013001A000300010003000000000001
:1043700013001400140014001300000004001F00B8
:1043800011001F0000001F000400000004000E00C8
:104390000A000A000A000E000400000004000400E5
:1043A0001F0000001F0004000400000008001D00A2
:1043B0001D001D001D001D000800000000000E0073
:1043C0001100110011000A001B000000FF004C004A
:1043D0006F00770020006200610074007400FF002D
:1043E000D9002600DF0028005D0035003F000500F1
:1043F00012000100A100140005000000F2002600D8
:02400E00C23FAF
:00000001FF
;PIC16F690
;CRC=7D05  CREATED="14-febr.-11 20:26"
