:100000000F308A005D2F0000FF00030E8301A50062
:100010007F08A4000A08AB008A01A40E0408A60009
:100020002008A7002108A8002208A9002308AA0088
:10003000831383120B1E1E288B1839288C308400E2
:10004000001C24280C183B288B1E28280B193D283F
:10005000260884002708A0002808A1002908A2007B
:100060002A08A3002B088A00250E8300FF0E7F0EAE
:1000700009008A1173288A116F288A114A280A10E8
:100080008A100A11820770346E34E4346D342034DF
:100090006B340034521C53288F018E01C801C030CC
:1000A000810052106C280F08A3000E08A0000F0852
:1000B0002302031D53282008C0002308C100C90AD9
:1000C0004808073C03186C28D2144108003C031868
:1000D0006C2883160C1083120B118A112828C80A69
:1000E0000C108A1128280B1246088316BF00BF0B7C
:1000F0007728831253187C28D31C8028000080287E
:10010000000042088316BF003F088312470203180D
:1001100089288316BF1C8E2800008E283F1D942836
:100120000000000000009428000083124218A82854
:1001300000009F149F189A2883161E088312D40764
:100140001E0803181E0FD50783160117B528831242
:100150009F149F18A92883161E088312D4021E0814
:10016000031C1E0FD502831601138312C20A031942
:10017000C30AD51EBF28551EBF28CE0AD512430874
:100180000E3C031CC928031DC82842087F3C0318E5
:100190000B168B108316BF0183128B18D72883167A
:1001A000BF1ED4288312D728BF0ACC2883128B10F5
:1001B0008A1128287A308400831300080319ED2857
:1001C0000630A100A001A00BE328A10BE2287B30A0
:1001D000A000A00BE928800BE02808008316331844
:1001E000F52883128713F72883168312871783163F
:1001F0008713B318FF28831207130129831683126C
:1002000007178316071333190929831287110B293E
:1002100083168312871583168711B3191329831246
:1002200087121529831683128716831687120330C7
:100230008312A000A00B1A29831686138312861737
:100240000330A000A00B2229831686138312861385
:10025000080083160613831206136330A000A00B58
:100260002F2932298316B00803193A29061383125D
:1002700006178316310EB2000F30B2053208B300F4
:100280008312EE20831631080F39B200B3008312B7
:10029000EE200330A000A00B4B29AE08031D54290B
:1002A0008316061383120613080080308316AF00EE
:1002B00083122C0F5C296829AC0803196229831664
:1002C0002F1783128316B0012F08B1008312292142
:1002D0002F088316AE002E08831203178D00831695
:1002E0008C130C1483120C0883160313AD002D0F0E
:1002F0007A29902983122D088316AD0683122F08C0
:100300008316B0002D08B10083122921AD0803190E
:100310008D2983162D088312AD008316AE0A6B2932
:1003200083122F0883162E02031DA229AE012E1A56
:10033000A2290130B0002030B10083122921831698
:10034000AE0A972983122D08343C0319AD01080029
:100350000830F300FA30FA00DA20F30BAA2908007B
:100360006430FA00DA2008006D088316A3008312B7
:100370006C088316A20083126B088316A1008312F7
:100380006A088316A000A701A6017B08A5007A08C9
:10039000A4002030AC00A801A901AA01AB012308E8
:1003A0008312A300831622088312A2008316210859
:1003B0008312A100831620088312A0000310201CC2
:1003C000F12983162408A80725080318250FA90773
:1003D00026080318260FAA0727080318270FAB07BC
:1003E00083128316AB0CAA0CA90CA80C8312A30CC5
:1003F000A20CA10CA00C8316AC0BFF29012A8312BE
:10040000DE2983122308ED002208EC002108EB000E
:100410002008EA000800B630A000A301A201A10153
:100420007708780479047A04031D182AA001252A84
:100430000310A11B242AF70DF80DF90DFA0DA30DD9
:10044000A20DA10DA00B182AA11308007808EA023A
:100450007908031C790FEB020030031C0130EC0219
:100460000030031C0130ED02080077080319182B37
:100470008316A4007B08031D3F2A8312182BA402B5
:10048000031C492A7F30A407031C482A8312182B17
:10049000532A8130A40203184F2A8312182B031DFC
:1004A000532A8312182B24088312A000A101A20151
:1004B000A3018316A3017808A200A2177908A1005E
:1004C0007A08A0001930A4007E08A0020318782A38
:1004D0000130A1020318782AA2020318782AA30285
:1004E0000318782AA30AA20AA10A7E08A007AC2A48
:1004F0007D08A1020318932A0130A2020318932A4F
:10050000A3020318932AA30AA20A7D08A1077E0862
:10051000A007031CAC2AA10A031DAC2AA20A031DD2
:10052000AC2AA30AAC2A7C088038A2020318A92AA4
:100530000130A3020318A92AA30A7C088038A20765
:100540007D08A107031C872AA20A031D872AA30A84
:10055000872A831223148316A40BAF2ABC2A031004
:10056000A00DA10DA20DA30D03108312A30DA20DCA
:10057000A10D8316A50D642A251CC62A031083121B
:10058000A10CA20CA30C8316A50CCB2A8312A003EA
:100590000319182B8316A51BF42A0310A00DA10D17
:1005A000A20DA30D7E08A0020318E02A0130A102CB
:1005B0000318E02AA2020318E02AA302031C0B2B53
:1005C0007D08A1020318EB2A0130A2020318EB2ACE
:1005D000A302031C0B2B7C088038A2020318F42A08
:1005E0000130A302031C0B2B8312A30A0319FA2A5E
:1005F00083160B2BA20A0319FF2A83160B2BA10AC1
:100600000319042B83160B2BA00A0319182BA10C1A
:10061000A20CA30C83167808A4007C08A406A41FCF
:10062000152B8312A1171C2B83168312A1131C2BCD
:10063000A001A101A201A301080077080319B42BAE
:100640008316A0007B08031D272B8312B42BA00761
:100650000318352B7F30A0020318302B8312B42BE4
:10066000031D342B8312B42B3B2B8130A007031CBA
:100670003B2B8312B42B20088312A000A101A201FE
:10068000A30178088316A400A4177908A3007A08A8
:10069000A2001830A000A101221C712B7E08831239
:1006A000A307031C5C2BA20A031D5C2BA10A031DDC
:1006B0005C2B8316A11783127D08A207031C662BEF
:1006C000A10A031D662B8316A11783127C08F9006B
:1006D000F9177908A107031C702B8316A117831241
:1006E0008316A10D8312A10CA20CA30C8316A40CDB
:1006F000A30CA20C0310A00B4B2B01308312A007FC
:100700000318B42BA11B8D2B8316A40D8312A30DEC
:10071000A20DA10DA0030319B42B8316A41FA72BB0
:100720008312A30A0319962B8316A72BA20A031977
:100730009B2B8316A72BA10A0319A02B8316A72B8B
:10074000A10CA20CA30CA00A0319B42B83167808E1
:10075000A1007C08A106A11FB12B8312A117B82B01
:1007600083168312A113B82BA001A101A201A3013A
:10077000080080308318FC068316A201A3017808C4
:10078000A1007C08A10677080319C12CA0008312E0
:10079000A0007B080319CD2C8316A00203195B2C43
:1007A000031C132C7C08A600A6177D08A5007E0854
:1007B000A400A3010310A60CA50CA40CA30CA00B71
:1007C000D92BA11FE62B2214E82C22102010221670
:1007D0007A3084008313FD2C2212A11BFB2B201CDA
:1007E000082CA60CA50CA40CA30C8312A00A0319B8
:1007F000E22C8316082CA61B0B2C0310A30DA40DB2
:10080000A50DA60D8312A0030319E22C8316FB2B62
:1008100022177D2C22137808A100A11F112CA617E6
:10082000D62CA613D62C7B08A0008312A000770834
:100830008316A0027808A600A6177908A5007A08F2
:10084000A400A3010310A60CA50CA40CA30CA00BE0
:10085000212CA11F2E2CA214E82CA2102010A216CD
:100860007E3084008313FD2CA212A11B432C201C7C
:10087000502CA60CA50CA40CA30C8312A00A0319DF
:10088000E22C8316502CA61B532C0310A30DA40D91
:10089000A50DA60D8312A0030319E22C8316432C89
:1008A000A2177D2CA2137C08A100A11F592CA6170A
:1008B000D62CA613D62C7C08A600A6177D08A5006A
:1008C0007E08A400A11F682CA6132215E82C221173
:1008D000A30120107A3084008313FD2CA11B952CDA
:1008E0007808A100201C7D2CA60CA50CA40CA30C40
:1008F0008312A00A0319E22C8316A31F902CA40ACA
:10090000031D902CA50A031D902CA60A031D902CF4
:10091000A60CA50CA40C8312A00A0319E22C8316C2
:10092000221B0A2CA21B522CBB2C8030A606A61F11
:100930009D2CE82C7C08A100AC2C7808A100A6080E
:10094000031DAC2CA508031DAC2CA408031DAC2C66
:100950008312A0018316D62CA61BBB2C0310A30D5B
:10096000A40DA50DA60D8312A00BB72CB92C8316D0
:10097000AC2CE22C8316A11FBF2CA617D62CA613D5
:10098000D62C7B088312A0007C088316A6007D0865
:10099000A5007E08A400D62C83127708A000780852
:1009A0008316A6007908A5007A08A40026088312F9
:1009B000A100831625088312A2008316240883123F
:1009C000A3001C2DA001A101A201A3011C2D8316CF
:1009D000A301A409A509A609A309A30A031DF62CCE
:1009E000A40A031DF62CA50A0319A60A2218E52B52
:1009F000A2182D2C2219672C9A2C0008A407031C7E
:100A0000072DA50A031D072DA60A03192014840328
:100A10000008A507031C0F2DA60A03192014840340
:100A20000008801F803AA60703182014221AEC2B16
:100A3000A21A342C6E2C83120800A001A101A2017D
:100A4000A3018316B701B801B901BA01360835040C
:100A50003404330403195E2D2030BB000310AF0DA6
:100A6000B00DB10DB20DB70DB80DB90DBA0D3608F8
:100A70003A02031D452D35083902031D452D340862
:100A80003802031D452D33083702031C562D330849
:100A9000B7023408031C340FB8023508031C350FA5
:100AA000B9023608031C360FBA0203148312A00DD4
:100AB000A10DA20DA30D8316BB0B2E2DB730840004
:100AC0008313831208006D088316B20083126C082A
:100AD0008316B10083126B088316B00083126A0874
:100AE0008316AF00B601B5012E08B4002D08B3007F
:100AF00083121D252308ED002208EC002108EB00DD
:100B00002008EA0008007708B63CF700A30178083F
:100B1000FB00F8170310F80CF90CFA0CA30CA20C4C
:100B2000A10CA00CF70B8A2DFB1FA12DA009A10978
:100B3000A209A309A00A0319A10A0319A20A031909
:100B4000A30A0800B021F101F001EF01EE015214F7
:100B5000D210C501C401FF30C900C801FE308100B8
:100B60008F018E010B1183160C1483128B16C0306B
:100B70008B043230FA00DA205218CB2D521EC52DCC
:100B8000D218C42DC81FC02DCB2DD218CB2D48088C
:100B9000273C0318C52D0B138B138B1BCC2D8B12ED
:100BA00083160C108312D21CC72EF4014908F300DF
:100BB000F30DF40DF30DF40DFC30F305F30A0319F6
:100BC000F40AED013030EC00D430EB00EA01740897
:100BD000FB007308FA00B4216D08FA006C08F900F4
:100BE0006B08F8006A08F7000B222308F1002208BE
:100BF000F0002108EF002008EE00ED014808EC00AD
:100C00004008EA004108EB00F9013630F8002622DE
:100C10006D08FA006C08F9006B08F8006A08F70024
:100C20000B227108FA007008F9006F08F8006E08CE
:100C3000F7002308FE002208FD002108FC00200820
:100C4000FB0035222308F1002208F0002108EF0004
:100C50002008EE007108F8007008F7006F08F60031
:100C60006E08F5008E30A0007508A0027608A2007C
:100C70007708A100A217A0080319492E0310A208A3
:100C8000031D452EA1080319492EA20CA10CA00B8F
:100C90003E2EF61F502EA109A209A10A0319A20A8D
:100CA0002208C5002108C4007108FA007008F90084
:100CB0006F08F8006E08F7007108FE007008FD006C
:100CC0006F08FC006E08FB001D232308F1002208BA
:100CD000F0002108EF002008EE00521E892E83103C
:100CE0007108FA007008F9006F08F8006E08F70044
:100CF0009A30FE009930FD001930FC007E30FB0078
:100D0000B9232308F1002208F0002108EF00200891
:100D1000EE00FB010730FA00B42174088316AE0020
:100D20007308AD00831263256B08C7004430C70207
:100D30005310D3100130C6004708023C0318A42EFC
:100D40000330C702C60A9C2E47185314C718D31481
:100D50006A08C700F830C7057108FA007008F90082
:100D60006F08F8006E08F70083252308ED002208BD
:100D7000EC002108EB002008EA008316AE013930B0
:100D8000AD00831263256B08D5006A08D400080003
:100D9000EA09EB09EC09ED09EA0A0319EB0A031960
:100DA000EC0A0319ED0A08000730F300203083161F
:100DB000A000A100A200A300A400A5003F30A6004F
:100DC0002030A700A800A900AA00AB01FB008312F5
:100DD000531DEF2E3D308316A200F22E83123D30BC
:100DE0008316A1008312ED1FF82E2D30FB00C826BC
:100DF000AC08031D592FD31E012F01308316A80004
:100E000083126D08FA006C08F9006B08F8006A0894
:100E1000F700F40152190E2F0430F400FA08031DF4
:100E20001F2FF908031D1F2FF808031D1F2F770818
:100E3000103C031C1F2F7408063C031C262F0310B4
:100E4000FA0CF90CF80CF70CF40A0E2F0730F40228
:100E5000F40E7708F407D2182F2FFF30F400023079
:100E6000CF077408CF02AE080319402F4030D306D5
:100E7000531B3C2F8030D306531F402FD31BAE0390
:100E80004F08043C0318572F2E085002CF00CF0CF8
:100E9000CF0C3F30CF05CF080319552F0310CF0CCF
:100EA000500F532F542FD00A4B2F5008AE00740808
:100EB000CF00D21CD72FED08031D6C2FEC08031DAB
:100EC0006C2F6B08263C0318742FFF3A031D6C2F00
:100ED0006A080F3C0318742F8316AE010A30AD0068
:100EE00083126325CA0A5B2FF4014A08023C0318E7
:100EF0007D2F0330CA02F40A752F0430CA07531934
:100F0000CA0A4A08073C0319CA0173084A02031DAA
:100F1000912F7308F303A03E840083132E308000CA
:100F2000CA01F601F501EB08031D9A2F6A08093C76
:100F30000318A42F0A30EA020030031C0130EB0230
:100F4000F50A0319F60A932F7308F303A03E8400F1
:100F5000831330306A078000531DB12F0730F30030
:100F600053117608EB007508EA006A086B04031D4C
:100F7000852FCA08031D852F7308073C0319F30347
:100F8000A0307307840083137B08800074083F201F
:100F9000A1008316A9008312CD080319D72F4E088C
:100FA0008316A00083124D088316A10083125108F6
:100FB0008316AA008312CD014B08AF005521F3011F
:100FC00073080A3C031CF32FA030730784008313BB
:100FD0000008FC0001308316B0007C08B1008312C9
:100FE0002921F30AE02F08000230F800FA30FA0055
:080FF000DA20F80BF62F0800CF
:1010000083168612831286168A11F4278A158A118E
:10101000A2258A158316861283128612080071088B
:10102000B7007008B6006F08B5006E08B40008007D
:101030003308FA003208F9003108F8003008F700E8
:101040003708FE003608FD003508FC003408FB00B8
:101050008A1135228A152008F3002108F40022089D
:10106000F5002308F60083142308FA002208F9008B
:101070002108F8002008F700FE01FD01FC017F3087
:10108000FB008A11B9238A15080018202008F300F4
:101090002108F4002208F5002308F6003F08FA00B2
:1010A0003E08F9003D08F8003C08F7008A110B22C1
:1010B0008A152308FA002208F9002108F800200800
:1010C000F7007608FE007508FD007408FC00730840
:1010D000FB008A1135228A152308FA002208F9003C
:1010E0002108F8002008F7008A1183258A152308B3
:1010F000BF002208BE002108BD002008BC00080077
:10110000521E8B28B130F6006030F5006630F400D6
:10111000AE30F30093286F30F600FC30F5000F304E
:10112000F400B230F3003F08FA003E08F9003D0831
:10113000F8003C08F7008A110B228A152308FA00F0
:101140002208F9002108F8002008F7003708FE00FF
:101150003608FD003508FC003408FB008A111D2309
:101160008A157608FA007508F9007408F800730803
:10117000F7002308FE002208FD002108FC002008DB
:10118000FB008A1135228A152308FA002208F9008B
:101190002108F8002008F7008A1183258A15230802
:1011A000ED002208EC002108EB002008EA0008000E
:1011B0003308D9003208D8003108D7003008D600EB
:1011C0007108B3007008B2006F08B1006E08B0007B
:1011D00000200F20BF01BE016908BD006808BC00E7
:1011E00045203308B7003208B6003108B500300892
:1011F000B400851C0F293F08FA003E08F9003D089D
:10120000F8003C08F7008A110B228A152308BB005E
:101210002208BA002108B9002008B8001729590887
:10122000B3005808B2005708B1005608B00080203B
:10123000851829296B08DB006A08DA005A080319A7
:10124000DB03DA033D08DD003C08DC00DC0A03199F
:10125000DD0A0800F8012330A000A00B2D29D701DA
:101260000330D6009F149F18332983161E0883125B
:10127000D6071E0803181E0FD707F80A7808303C57
:1012800003183229F830D605080003171F109F10E5
:101290001F119F1103131F13703003179E00831635
:1012A00003131F129F161F1383129F171F14FF3063
:1012B0008316850007308600870003309500811370
:1012C00083120317950199019A0183169E018312D7
:1012D0009B0103138D1203179901A1309A00831605
:1012E0009E0183129B0103138D1283160108C739D7
:1012F000283881000530831290000030A100920050
:1013000000308316920083129412831687130616F8
:1013100006130130831294000030831694001830B5
:101320008312A1001F08C33921049F00831686126F
:101330008312861283160612831206128316061370
:101340008312061383168613831286130F30FA0056
:101350008A11DA208A15F3017319BC290330831628
:10136000B3008A118312EE208A150530FA008A1123
:10137000DA208A15F30AAC2902308316B3008A11E9
:101380008312EE208A15AF018A1155218A150A3081
:10139000FA008A11DA208A158316B0014030B100B4
:1013A0008A11831229218A159E30AF008A11552196
:1013B0008A158316061671308312AD00AC01D31264
:1013C0008D30AF008A1155218A158A11A8218A15FE
:1013D0004030D000FF30AE008518FA296B30AF00E6
:1013E0008A1155218A158A11B0218A15AE08031D6C
:1013F000AE03EC29051C082A5A30AF008A1155218A
:101400008A158A11B0218A15AE08031DAE03FA2988
:101410004030AE00F20172080F3C031C222A5A3001
:10142000720784008313F0307207F5007508031704
:101430008D0083168C130C1483120C088000F20AA2
:1014400003130B2A8A11A2258A15ED01EC01450828
:10145000EB004408EA002A30CB000730D1001130FD
:10146000CA005311CD018A11D4268A15D820450807
:10147000EB004408EA00AC0A1130CA003030CB005F
:101480008A11D4268A158A11A8218A151430A10040
:101490001F08C33921049F002A215708C30056089A
:1014A000C20083168612831286160A30FA008A1149
:1014B000DA208A152A2183168612831286121830A2
:1014C000A1001F08C33921049F0043085702031CD1
:1014D000762A031D6F2A560842020318762A42080C
:1014E000D6024308031C430FD702782AD701D6013E
:1014F000D708031D7E2A5608803C031CD3168A1584
:10150000772F5930AF008A1155218A150800C30181
:10151000C201D5010F30D400CD01CE01D21049084F
:10152000183C0318CD2A49082B3C031CCD2A103047
:10153000A1001F08C33921049F00831601138312E1
:101540000B16C0308B046430FA008A11DA208A1539
:101550000B138B138B1BA92A0B121830A1001F0829
:10156000C33921049F00D50CD40CD50CD40CD50C58
:10157000D40CD50CD40CD50CD40C0730D505CE0822
:101580000319C62A0130D507CE03BF2AD508031D8B
:10159000CC2A54081E3C031CD214080083160612E1
:1015A0008312061252168A11A2258A150800831684
:1015B00006168312521208003308D9003208D800E8
:1015C0003108D7003008D600D211CE224408CE0010
:1015D0004508003C0318EE2AFF30CE00CE08031960
:1015E000CE0AD21CCE01D7228A11A2258A15450C1B
:1015F000A300440CA200A30CA20CA30CA20C220872
:10160000CD004508073C0318072BFF30CD00CD085F
:101610000319CD0AD21CCD01CE080319262B4E0882
:101620003B3C031C262B4E08173C03181B2B4D0874
:101630004E020318262B4E08073C031C232B4D0893
:10164000103C031C262BCE22CD01D2140F20CD0836
:1016500003192C2BD214CE014E08073C031C372B48
:101660004D087F3C031C492BCD080319492B370833
:10167000B3003608B2003508B1003408B0000020CD
:101680000F20BF01BE016908BD006808BC004520ED
:10169000D2155908B3005808B2005708B1005608CF
:1016A000B000CD0108000130AC008122AC018A11EC
:1016B000B0218A15D21C592C051C592C85198C2B4C
:1016C0000518692B69082E3C031C692BE80A0319CD
:1016D000E90A8518732B6908223C0318732B6808E4
:1016E0000319E903E8034630D100A201A30123084E
:1016F000ED002208EC006908EB006808EA002430DD
:10170000CB000230CA005008AE008A11D4268A15D8
:101710008A11B0218A155E2B8316061283120616D3
:101720003A30A000A00B922B2A2157081B3C03182B
:10173000B42BED012330EC00F330EB000130EA0074
:1017400057088316AE00831256088316AD008A111F
:10175000831263258A152F306A02E2006B08E300CA
:101760000030031C0130E30283160616F4308312A6
:10177000D1000F30CA00ED01EC016308EB006208F4
:10178000EA005430CB0053118A11D4268A158A11ED
:10179000A8218A155A30AF008A1155218A15FF30C9
:1017A000AE00051CDF2B8A11B0218A15AE08031D7F
:1017B000AE035A30AF008A1155218A15D12B50083B
:1017C000AE008A11A8218A158A11A2258A15490816
:1017D0002B3C0318F92BD82052118122851CF32BA6
:1017E000E430AF00F52BDF30AF008A1155218A15A8
:1017F0002D2C5508DF005408DE0087225508E10033
:101800005408E000DC223F08E7003E08E6003D08FF
:10181000E5003C08E4005630D1000B30CA004830E7
:10182000CB005311ED01EC016108EB006008EA0008
:101830008A11D4268A158A11A8218A150730D10069
:101840001130CA00ED01EC014508EB004408EA0044
:101850004E30CB008A11D4268A15F20172080E3C54
:10186000031C582CF0307207F3005A3072078400C2
:1018700083130008F400730803178D0074088C00AC
:1018800083168C130C15831203130B08A0008B1303
:101890008316031755308D00AA308D008C148C18D8
:1018A0004F2C0C118312031320088B04F20A2E2CE8
:1018B0005E2C7C30AF008A1155218A158A11A8212F
:1018C0008A158A15922FC301C201D21BC02D521B4B
:1018D000C02D1830CB005211831606128312061247
:1018E0008A11F4278A158316061683122A215708AF
:1018F000F3005608F200F31B9D2D10307207F40020
:101900007308F500273003182830F5077508F9002B
:101910007408F800FB013130FA00A101A201A00116
:10192000A3017B08031D972C7A080319B12C1030F2
:10193000FC000310F80DF90DA00DA30D7B08230288
:10194000031DA42C7A082002031CAD2C7A08A002E7
:10195000031CA3037B08A3020314A10DA20DFC0B1F
:10196000992C2208F5002108F40083160612831230
:101970000616C20A0319C30A9F149F18BD2C8316AA
:101980001E08F60083121E08F700431BD12C7708AF
:101990007502031CD12C031DB92C74087602031C9C
:1019A000B92C8316061683122A215708F50056080B
:1019B000F4007208F60001307307F700431FEA2CA9
:1019C00075087702031CEA2C031DE92C76087402C3
:1019D000031CD217C308031DF12C4208023C031854
:1019E0009D2D521553150630CA004630D10075089A
:1019F000F7007408F6008A11B0218A152A215608CA
:101A0000F6025708031C570FF702F70CF60CF70CF9
:101A1000F60CF70CF60CF70CF60C0F30F705CE01B0
:101A2000F719282DF708031D192D7608633C0318B4
:101A30001C2DF7016330F600521D212D7608CD00D4
:101A4000282D7608CE004E0B262DCE010310CE0D8C
:101A50000430D2065708F7005608F600521DFB2C3A
:101A60004E084D020318362D3630CB003030CE00F4
:101A70004D08093C0318402D0A30CD02CE0A382DFE
:101A80003030CD074E08303C031D4A2D4D08CE00A6
:101A90002030CD007208F4027308031C730FF502A6
:101AA000ED01EC01C330EB00CF30EA007308F90020
:101AB0007208F8008A1126228A155B30FB00683014
:101AC000FA008A11B4218A1575088316AE007408CD
:101AD000AD008A11831263258A153030F900D430A5
:101AE000F8008A1126228A1563088316AE00831235
:101AF00062088316AD008A11831263258A15430894
:101B0000FB004208FA008A11B4218A15F9012E302F
:101B1000F8008A1126228A15ED08031D9D2DEC0878
:101B2000031D9D2D6B08033C031C9D2DFB010A30FA
:101B3000FA008A11B4218A15CA0383160612831289
:101B400006120530FA008A11DA208A152A21831636
:101B500006168312431FBF2D7308003C031CBF2DC4
:101B60007508003C0318BF2D5708003C031CBF2D0F
:101B7000D21EBD2DD212D210BF2DD2135217C32D9B
:101B80008A11F4278A158A15992F18202008F20047
:101B90002108F3002208F4002308F500FA002208C7
:101BA000F9002108F8002008F7003B08FE003A0879
:101BB000FD003908FC003808FB008A111D238A1536
:101BC0002308FA002208F9002108F8002008F7008D
:101BD0008A1183258A152308ED002208EC002108CC
:101BE000EB002008EA000630CB000230CA00463085
:101BF000D100F701F6016D08F5006C08F4006B08E0
:101C0000F3006A08F200F408031D0A2E7308403C32
:101C10000318532EF508031D532EF5010F30F20063
:101C20007208053C0318452EF508031D292E74087B
:101C3000A3007308A2007208A0000319242E031049
:101C4000A30CA20CA00B1F2E2208221C292E01304F
:101C5000F500F5080319432E7408F9007308F8001D
:101C60008A1126228A15A3010130A2007208A00061
:101C700003193F2E0310A20DA30DA00B3A2E22082C
:101C8000F6042308F704F203102E7608EA07770813
:101C90000318770FEB07003003180130EC07003012
:101CA00003180130ED078A159B2F4830D10007300B
:101CB000CA001230CB00D21E602ED218D212DC2203
:101CC000D219732E521E6D2E6708BF006608BE0023
:101CD0006508BD006408BC00732EBF01BE015D082D
:101CE000BD005C08BC008020D21D782E4230CB00A5
:101CF000521A8C2E8A11F4278A155A08EA025B08B8
:101D0000031C5B0FEB020030031C0130EC020030BF
:101D1000031C0130ED028E2ECA0A53158A159D2F21
:101D200053125F085502031CA42E031D9B2E54085A
:101D30005E020318A42E5F08F7005E08F60055083F
:101D4000F9005408F800AC2E5F08F9005E08F800AE
:101D50005508F7005408F6005508F3005408F2003F
:101D60008722D21C5B2F5315ED01EC016108EB00BB
:101D70006008EA007908FB007808FA008A11B421AB
:101D80008A1577088316AE007608AD008A11831293
:101D900063258A156B08F5006A08F400ED01EC0173
:101DA0005B08EB005A08EA005B08FB005A08FA00DF
:101DB0008A11B4218A156C08EA006D08EB00EC0169
:101DC000ED015F08FB005E08FA008A11B4218A1554
:101DD00075088316AE007408AD008A11831263255E
:101DE0008A1554087402F2007508F3005508031CA4
:101DF000550FF30275085502031C0E2F031D042F07
:101E00005408740203180E2F531674085402F2007B
:101E10005508F3007508031C750FF3027308FB00E7
:101E20007208FA008A11B4218A15521F4B2F6D08CF
:101E30008316B20083126C088316B10083126B08FC
:101E40008316B00083126A088316AF00B601033010
:101E5000B5002030B400B3018A1183121D258A1504
:101E60002108F3002008F20055087302031C3E2FDE
:101E7000031D3D2F540872020318D2107208D402B9
:101E80007308031C730FD502D508031D4B2F54088C
:101E90001D3C0318D21055088316AE008312540857
:101EA0008316AD008A11831263258A15531E5B2F9A
:101EB0008A11C8268A158A15A92F840183131F3019
:101EC0008305FF30AC00AD0103171F109F101F11D9
:101ED0009F1103131F13003003179E0099019A01ED
:101EE00083169E0183129B0103138D1245298A11CB
:101EF000A2258A150F20CC0A6F08CC024C08023CA0
:101F0000031C862FD319D216D311872FD3156F0830
:101F1000CC0049082B3C0318902FD21352135211B6
:101F20000518532B851C9C2F521E972FD722D21198
:101F3000632C521DC52D9D2F552EAC01D21BA52FF4
:101F4000521BA52F8A11D4268A15AC0A521DBD2F0B
:101F5000902EF430D1000B30CA001E30CB00D21FBF
:101F6000B42F3C30CB00AC01521FB92FE930CB006D
:101F7000AC018A11D4268A15F92F4630D1000230DF
:101F8000CA00D21DF82F0C30CB003F08ED003E08F0
:101F9000EC003D08EB003C08EA00521EE92F531507
:101FA0006408EA026508031C650FEB026608031C5F
:101FB000660FEC026708031C670FED02ED08031DB6
:101FC000E82FEC08031DE82F6B083F3C0318D211E3
:101FD000F02F5D08F9005C08F8008A1126228A15A6
:101FE000ED1BD211D21DF72F8A11D4268A15F92F95
:0E1FF000AC01AC08031DFE2FAC0A8122772F36
:021FFE0063007E
:10420000280008000C0001000600FF002000050047
:10421000200043007800FF00200020002000430021
:104220007000FF002000060020004C007800FF0016
:1042300003002000430020006D00FF000400200068
:10424000450053005200FF0020004300630061005E
:104250006C00FF0020004600300020002000FF001E
:1042600020004600430061006C00FF000300430093
:10427000200073007A00FF0020000400200052009C
:104280007800FF000500060020004C007800FF00C9
:1042900055006500730072003000FF0020004600EA
:1042A000650073007200FF00200020002000520013
:1042B0006500FF002000560000006C0074007300D1
:1042C000200076006900730073007A00610021000D
:1042D00020002000FF00560000006C0074007300F6
:1042E00020004300200000006C006C000000730000
:1042F000620061002100FF004B0061006C0069005A
:104300006200720000006C00000073002000680072
:104310006900620061002100FF00210019006F00A8
:1043200076001400690061000F000E007E001E0080
:104330005B0047001F001C000600FF000200040095
:104340000E0001000F0011000F00000006000F001A
:10435000090009000B000F000F0000000000000022
:1043600013001400140014001300000004001F00C8
:1043700011001F0000001F000400000004000E00D8
:104380000A000A000A000E000400000004000400F5
:104390001F0000001F0004000400000008001D00B2
:1043A0001D001D001D001D0008000000120012006D
:1043B00012001F001100120017000000FF004C0047
:1043C0002D003E003000FF0043002D003E00300075
:0E43D000FF0002002D00450053005200FF00C8
:1043E000F2002500D90028008E003900C7000C001B
:1043F000F10000000000020005000000F2002600AD
:02400E00C23FAF
:00000001FF
;PIC16F690
;CRC=9831  CREATED="17-okt.-10 19:28"
