:100000000E308A00F72E0000FF00030E8301A500CA
:100010007F08A4000A08AB008A01A40E0408A60009
:100020002008A7002108A8002208A9002308AA0088
:10003000831383120B1E1E288B1839288C308400E2
:10004000001C24280C183B288B1E28280B193D283F
:10005000260884002708A0002808A1002908A2007B
:100060002A08A3002B088A00250E8300FF0E7F0EAE
:1000700009008A1173288A116F288A114A280A10E8
:100080008A100A11820770346E34E4346D342034DF
:100090006B3400344D1C53288F018E01CB01C030CE
:1000A00081004D106C280F08A3000E08A0000F0857
:1000B0002302031D53282008BF002308C000CC0AD8
:1000C0004B08073C03186C28CD144008003C03186B
:1000D0006C2883160C1083120B118A112828CB0A66
:1000E0000C108A1128280B1249088316C300C30B71
:1000F000772883124E187C28CE1C80280000802888
:10010000000041088316C300430883124A02031803
:1001100089288316C31C8E2800008E28431D94282E
:100120000000000000009428000083124118A82855
:1001300000009F149F189A2883161E088312D70761
:100140001E0803181E0FD80783160117B52883123F
:100150009F149F18A92883161E088312D7021E0811
:10016000031C1E0FD802831601138312C10A031940
:10017000C20AD81EBF28581EBF28D30AD812420868
:100180000E3C031CC928031DC82841087F3C0318E6
:100190000B168B108316C30183128B18D728831676
:1001A000C31ED4288312D728C30ACC2883128B10ED
:1001B0008A11282879308400831300080319ED2858
:1001C0000630A100A001A00BE328A10BE2287B30A0
:1001D000A000A00BE928800BE02808008316341843
:1001E000F52883128713F72883168312871783163F
:1001F0008713B418FF28831207130129831683126B
:1002000007178316071334190929831287110B293D
:1002100083168312871583168711B4191329831245
:1002200087121529831683128716831687120330C7
:100230008312A000A00B1A29831686138312861737
:100240000330A000A00B2229831686138312861385
:10025000080083160613831206136330A000A00B58
:100260002F2932298316B10803193A29061383125C
:1002700006178316320EB3000F30B3053308B400EF
:100280008312EE20831632080F39B300B4008312B4
:10029000EE200330A000A00B4B29AE08031D54290B
:1002A0008316061383120613080080308316B000ED
:1002B00083122C0F5C296829AC0803196229831664
:1002C000301783128316B1013008B200831229213E
:1002D00083162D08AF002F08831203178D00831695
:1002E0008C130C1483120C0883160313AE002E0F0C
:1002F0007A298E2983122D088316AE062D08B100A7
:100300002E08B20083122921AD0803198B29831608
:100310002E088312AD008316AF0A6B292D082F0219
:10032000031D9E29AF012F1A9E290130B1002030F4
:10033000B200831229218316AF0A932983122D0854
:10034000303C0319AD0108000830F200FA30F90022
:10035000DA20F20BA62908006430F900DA20080040
:100360006C08FE006B08FD006A08FC006908FB00D1
:100370008316A301A2017A08A1007908A000203009
:10038000A800A401A501A601A7017E088312A3006D
:100390007D08A2007C08A1007B08A0000310201C9F
:1003A000E12983162008A40721080318210FA507B7
:1003B00022080318220FA60723080318230FA707F4
:1003C00083128316A70CA60CA50CA40C8312A30CF5
:1003D000A20CA10CA00C8316A80BEF29F129831203
:1003E000CE2983122308EC002208EB002108EA0042
:1003F0002008E9000800B630A000A301A201A10175
:10040000780879047A047B04031D082AA001152AC0
:100410000310A11B142AF80DF90DFA0DFB0DA30D05
:10042000A20DA10DA00B082AA1130800780803193A
:10043000F92A8316A8002008031D202A8312F92A0E
:10044000A802031C2A2A7F30A807031C292A83122A
:10045000F92A342A8130A8020318302A8312F92A93
:10046000031D342A8312F92A28088312A000A1014F
:10047000A201A3018316A7017908A600A6177A088E
:10048000A5007B08A4001930A8002308A4020318C3
:10049000592A0130A5020318592AA6020318592A1D
:1004A000A7020318592AA70AA60AA50A2308A4071F
:1004B0008D2A2208A5020318742A0130A602031807
:1004C000742AA7020318742AA70AA60A2208A507F5
:1004D0002308A407031C8D2AA50A031D8D2AA60A3A
:1004E000031D8D2AA70A8D2A21088038A602031829
:1004F0008A2A0130A70203188A2AA70A210880380D
:10050000A6072208A507031C682AA60A031D682A55
:10051000A70A682A831223148316A80B902A9D2AFF
:100520000310A40DA50DA60DA70D03108312A30D96
:10053000A20DA10D8316A90D452A291CA72A031077
:100540008312A10CA20CA30C8316A90CAC2A831253
:10055000A0030319F92A8316A91BD52A0310A40D99
:10056000A50DA60DA70D2308A4020318C12A01306A
:10057000A5020318C12AA6020318C12AA702031C58
:10058000EC2A2208A5020318CC2A0130A60203187F
:10059000CC2AA702031CEC2A21088038A6020318E3
:1005A000D52A0130A702031CEC2A8312A30A0319DF
:1005B000DB2A8316EC2AA20A0319E02A8316EC2A06
:1005C000A10A0319E52A8316EC2AA00A0319F92ABD
:1005D000A10CA20CA30C83167908A8002108A80678
:1005E000A81FF62A8312A117FD2A83168312A113CE
:1005F000FD2AA001A101A201A30108008E30A000E4
:100600007808A0027908A2007A08A100A217A00821
:100610000319152B0310A208031D112BA1080319A0
:10062000152BA20CA10CA00B0A2BF91F1C2BA10946
:10063000A209A10A0319A20A080078080319B82B15
:100640008316A4002008031D272B8312B82BA407B0
:100650000318352B7F30A4020318302B8312B82BDC
:10066000031D342B8312B82B3B2B8130A407031CB2
:100670003B2B8312B82B24088312A000A101A201F6
:10068000A30179088316A800A8177A08A7007B0899
:10069000A6001830A400A501261C752B2308831280
:1006A000A307031C5C2BA20A031D5C2BA10A031DDC
:1006B0005C2B8316A5178312831622088312A207C8
:1006C000031C682BA10A031D682B8316A517831230
:1006D00083162108FA00FA177A088312A107031C6F
:1006E000742B8316A51783128316A50D8312A10CF4
:1006F000A20CA30C8316A80CA70CA60C0310A40B29
:100700004B2B01308312A0070318B82BA11B912B90
:100710008316A80D8312A30DA20DA10DA00303192A
:10072000B82B8316A81FAB2B8312A30A03199A2B8D
:100730008316AB2BA20A03199F2B8316AB2BA10A9E
:100740000319A42B8316AB2BA10CA20CA30CA00A9B
:100750000319B82B83167908A5002108A506A51F43
:10076000B52B8312A117BC2B83168312A113BC2BAC
:10077000A001A101A201A3010800A001A101A20101
:10078000A3018316B701B801B901BA0136083504CF
:10079000340433040319FE2B2030BB000310AF0DCB
:1007A000B00DB10DB20DB70DB80DB90DBA0D3608BB
:1007B0003A02031DE52B35083902031DE52B3408E9
:1007C0003802031DE52B33083702031CF62B3308D0
:1007D000B7023408031C340FB8023508031C350F68
:1007E000B9023608031C360FBA0203148312A00D97
:1007F000A10DA20DA30D8316BB0BCE2BB730840029
:100800008313831208006C088316B20083126B08EE
:100810008316B10083126A088316B0008312690838
:100820008316AF00B601B5012E08B4002D08B30041
:100830008312BD232308EC002208EB002108EA0004
:100840002008E90008007808B63CF800A301790800
:10085000FC00F9170310F90CFA0CFB0CA30CA20C0A
:10086000A10CA00CF80B2A2CFC1F412CA009A109FB
:10087000A209A309A00A0319A10A0319A20A0319CC
:10088000A30A0800AC21F001EF01EE01ED014D14C7
:10089000CD10C401C301FF30CC00CB01FE3081007C
:1008A0008F018E010B1183160C1483128B16C0302E
:1008B0008B04CD185F2C4B08273C0318592C0B13C5
:1008C0008B138B1B602C8B1283160C108312CD1C88
:1008D0003C2DF7014C08F600F60DF70DF60DF70D5F
:1008E000FC30F605F60A0319F70AEC013030EB008C
:1008F000D430EA00E9017708FA007608F900B0215F
:100900006C08FB006B08FA006A08F9006908F80037
:10091000FB212308F0002208EF002108EE00200848
:10092000ED00EC014B08EB003F08E9004008EA004D
:100930003630E9020030031C0130EA020030031CAB
:100940000130EB020030031C0130EC026C08FB00AC
:100950006B08FA006A08F9006908F800FB217008C2
:10096000FB006F08FA006E08F9006D08F800230814
:100970008316A300831222088316A2008312210883
:100980008316A100831220088316A000831216226A
:100990002308F0002208EF002108EE002008ED00F7
:1009A0007008FB006F08FA006E08F9006D08F80087
:1009B000FE222208C4002108C3007008FB006F0853
:1009C000FA006E08F9006D08F80070088316A3009D
:1009D00083126F088316A20083126E088316A1008B
:1009E00083126D088316A00083121D232308F000D4
:1009F0002208EF002108EE002008ED00FA01073080
:100A0000F900B02177088316AE007608AD00831296
:100A100003246A08CA004430CA024E10CE100130C6
:100A2000C9004A08023C0318192D0330CA02C90A3A
:100A3000112D4A184E14CA18CE146908CA00F8308D
:100A4000CA057008FB006F08FA006E08F9006D080F
:100A5000F80023242308EC002208EB002108EA0018
:100A60002008E9008316AE013930AD00831203245B
:100A70006A08D8006908D70008000730F2003D3046
:100A8000F30020308316A000A100A200A300A40060
:100A9000A5003F30A6002030A700A800A900AA00AA
:100AA000AB01FA008312AC08031D5A2DCE1E5A2D3D
:100AB0000130F3004E1D612D73088316A200642DD2
:100AC000831273088316A1008312EC1F742D2D303E
:100AD000FA00E909EA09EB09EC09E90A0319EA0A4B
:100AE0000319EB0A0319EC0AAC08031DCF2D6C089F
:100AF000F9006B08F8006A08F7006908F600F301CE
:100B00004D19842D0430F300F908031D952DF808C4
:100B1000031D952DF708031D952D7608103C031C29
:100B2000952D7308063C031C9C2D0310F90CF80C42
:100B3000F70CF60CF30A842D0730F302F30E760857
:100B4000F307CD18A52DFF30F3000230D40773084A
:100B5000D402AE080319B62D4030CE064E1BB22D7E
:100B60008030CE064E1FB62DCE1BAE035408043C7B
:100B70000318CD2D2E085502D400D40CD40C3F30D0
:100B8000D405D4080319CB2D0310D40C550FC92D4F
:100B9000CA2DD50AC12D5508AE007308D400CD1C4E
:100BA0004D2EEC08031DE22DEB08031DE22D6A0813
:100BB000263C0318EA2DFF3A031DE22D69080F3C7D
:100BC0000318EA2D8316AE010A30AD008312032408
:100BD000CF0AD12DF3014F08023C0318F32D033047
:100BE000CF02F30AEB2D0430CF074E19CF0A4F087E
:100BF000073C0319CF0172084F02031D072E72082C
:100C0000F203A03E840083132E308000CF01F50153
:100C1000F401EA08031D102E6908093C03181A2E76
:100C20000A30E9020030031C0130EA02F40A031919
:100C3000F50A092E7208F203A03E840083133030B7
:100C4000690780004E1D272E0730F2004E117508EF
:100C5000EA007408E90069086A04031DFB2DCF0847
:100C6000031DFB2D7208073C0319F203A030720725
:100C7000840083137A08800073083F20A100831644
:100C8000A9008312D20803194D2E53088316A00021
:100C9000831252088316A100831256088316AA00F5
:100CA0008312D20150088316AD0083125521F20140
:100CB00072080A3C031C6B2EA03072078400831359
:100CC0000008FB0001308316B1007B08B2008312DC
:100CD0002921F20A582E08008316861283128616DE
:100CE0004224831686128312861208008E30A000DA
:100CF0007708A1007608A200A301A108031D8A2E8F
:100D00002208A100A2010830A002A108031D8A2E1A
:100D1000A001922E0310A11B912EA20DA10DA003E4
:100D20008A2EA11308008030831C992E8316A106F9
:100D300083128316A601A7017B08A5002108A5063A
:100D40007A0803199E2FA4008312A000831620089E
:100D50000319A92FA4020319382F031CF02E210810
:100D6000AA00AA172208A9002308A800A7010310B7
:100D7000AA0CA90CA80CA70CA40BB62EA51FC32E59
:100D80002614C52F2610241026167D3084008313C8
:100D9000DA2F2612A51BD82E241CE52EAA0CA90C8E
:100DA000A80CA70C8312A00A0319BF2F8316E52EE7
:100DB000AA1BE82E0310A70DA80DA90DAA0D8312DA
:100DC000A0030319BF2F8316D82E26175A2F2613D8
:100DD0007B08A500A51FEE2EAA17B32FAA13B32FC9
:100DE0002008A4008312A0007A088316A4027B08BE
:100DF000AA00AA177C08A9007D08A800A701031073
:100E0000AA0CA90CA80CA70CA40BFE2EA51F0B2F37
:100E1000A614C52FA6102410A616A3308400831391
:100E2000DA2FA612A51B202F241C2D2FAA0CA90CEB
:100E3000A80CA70C8312A00A0319BF2F83162D2F0D
:100E4000AA1B302F0310A70DA80DA90DAA0D831200
:100E5000A0030319BF2F8316202FA6175A2FA613FE
:100E60002108A500A11F362FAA17B32FAA13B32F4D
:100E70002108AA00AA172208A9002308A800A51F74
:100E8000452FAA132615C52F2611A70124107D3042
:100E900084008313DA2FA51B722F7B08A500241C66
:100EA0005A2FAA0CA90CA80CA70C8312A00A03198C
:100EB000BF2F8316A71F6D2FA80A031D6D2FA90A28
:100EC000031D6D2FAA0A031D6D2FAA0CA90CA80CD7
:100ED0008312A00A0319BF2F8316261BE72EA61B19
:100EE0002F2F982F8030AA06AA1F7A2FC52F2108EE
:100EF000A500892F7B08A500AA08031D892FA90832
:100F0000031D892FA808031D892F8312A0018316B2
:100F1000B32FAA1B982F0310A70DA80DA90DAA0D7A
:100F20008312A00B942F962F8316892FBF2F831621
:100F3000A51F9C2FAA17B32FAA13B32F2008831223
:100F4000A00083162108AA002208A9002308A800EF
:100F5000B32F7A088312A0007B088316AA007C08AE
:100F6000A9007D08A8002A088312A1008316290879
:100F70008312A200831628088312A300F92FA00170
:100F8000A101A201A301F92F8316A701A809A909AC
:100F9000AA09A709A70A031DD32FA80A031DD32F47
:100FA000A90A0319AA0A2618C22EA6180A2F26195A
:100FB000442F772F0008A807031CE42FA90A031D5C
:100FC000E42FAA0A0319241484030008A907031CA8
:100FD000EC2FAA0A0319241484030008801F803A06
:100FE000AA0703182414261AC92EA61A112F4B2F4C
:040FF0008312080060
:101000003208FB003108FA003008F9002F08F80018
:1010100036088316A300831235088316A2008312B4
:1010200034088316A100831233088316A0008A11A6
:10103000831216228A152008F6002108F7002208DC
:10104000F8002308F90083147908FD007808FC00F3
:101050007708FB007608FA008316A301A201A1011C
:101060007F30A0008A11831293268A150800002081
:101070003E08FB003D08FA003C08F9003B08F80078
:1010800023088316A300831222088316A20083126A
:1010900021088316A100831220088316A0008A115C
:1010A000831216228A152308BE002208BD002108DB
:1010B000BC002008BB0008003E08FB003D08FA0009
:1010C0003C08F9003B08F80036088316A300831299
:1010D00035088316A200831234088316A1008312F8
:1010E00033088316A0008A1183121D238A156F30DE
:1010F000FB00FC30FA000F30F900B230F800230892
:101100008316A300831222088316A20083122108EB
:101110008316A100831220088316A0008A1183126F
:1011200016228A152308FB002208FA002108F9007C
:101130002008F8008A1123248A152308EC002208CD
:10114000EB002108EA002008E90008003208F50059
:101150003108F4003008F3002F08F2007008B200E4
:101160006F08B1006E08B0006D08AF008A116C26E0
:101170008A157008B6006F08B5006E08B4006D08D7
:10118000B3006808F7006708F6008A1176268A150A
:101190002308BE002208BD002108BC002008BB00B7
:1011A0003720851CDB283E08BA003D08B9003C0802
:1011B000B8003B08B7003208B6003108B500300867
:1011C000B4002F08B3005C20851801296A08DA00F2
:1011D0006908D9003E08FB003D08FA003C08F90008
:1011E0003B08F8008A11FE228A152208DC0021083B
:1011F000DB007508B2007408B1007308B000720813
:10120000AF000800F7012330A000A00B0529C6019C
:101210000330C5009F149F180B2983161E088312E4
:10122000C5071E0803181E0FC607F70A7708303CCB
:1012300003180A29F830C505080003171F109F106E
:101240001F119F1103131F13703003179E00831685
:1012500003131F129F161F1383129F171F14FF30B3
:1012600083168500073086008700033095008113C0
:1012700083120317950199019A0183169E01831227
:101280009B0103138D1203179901A1309A00831655
:101290009E0183129B0103138D1283160108C73927
:1012A000283881000530831290000030A1009200A0
:1012B0000030831692008312941283168713061649
:1012C0000613013083129400003083169400183006
:1012D0008312A1001F08C33921049F0083168612C0
:1012E00083128612831606128312061283160613C1
:1012F0008312061383168613831286130F30F900A8
:101300008A11DA208A15F2017219942903308316A2
:10131000B4008A118312EE208A150530F9008A1173
:10132000DA208A15F20A842902308316B4008A1161
:101330008312EE208A158316AD018A11831255217E
:101340008A150A30F9008A11DA208A158316B1014C
:101350004030B2008A11831229218A159E308316EB
:10136000AD008A11831255218A1583160616713035
:101370008312AD00AC01CE128D308316AD008A1100
:10138000831255218A158A11A4218A154030D5006F
:10139000FF30AE008518DA296B308316AD008A1154
:1013A000831255218A158A11AC218A15AE08031DB6
:1013B000AE03CA29051CEA295A308316AD008A11EA
:1013C000831255218A158A11AC218A15AE08031D96
:1013D000AE03DA294030AE00F101711A022A593009
:1013E000710784008313EF307107F400740803174A
:1013F0008D0083168C130C1483120C088000F10AE4
:101400000313ED298A1142248A15EC01EB014408EB
:10141000EA004308E9002A30D0000730D600113036
:10142000CF004E11D2018A113D258A15A62044080D
:10143000EA004308E900AC0A1130CF003030D00098
:101440008A113D258A158A11A4218A151430A1001C
:101450001F08C33921049F0002214608C200450825
:10146000C10083168612831286160A30F9008A118B
:10147000DA208A150221831686128312861218300A
:10148000A1001F08C33921049F0042084602031C23
:10149000562A031D4F2A450841020318562A4108BF
:1014A000C5024208031C420FC602582AC601C501E4
:1014B000C608031D5E2A4508803C031CCE168A150B
:1014C000112FC201C101D8010F30D700D301CD10B7
:1014D0004C08183C0318A62A4C082B3C031CA62ACF
:1014E0001030A1001F08C33921049F008316011387
:1014F00083120B16C0308B04C830F9008A11DA2031
:101500008A150B138B138B1B822A0B121830A10028
:101510001F08C33921049F00D80CD70CD80CD70C56
:10152000D80CD70CD80CD70CD80CD70C0730D80552
:10153000D30803199F2A0130D807D303982AD80863
:10154000031DA52A57081E3C031CCD1408008A1150
:101550006C268A153208F5003108F4003008F300D3
:101560002F08F2003608B2003508B1003408B00088
:101570003308AF007008B6006F08B5006E08B400FD
:101580006D08B3006808F7006708F6008A11762630
:101590008A152308BE002208BD002108BC002008CF
:1015A000BB0037207508B2007408B1007308B000A2
:1015B0007208AF0008000130AC0059308316AD004E
:1015C0008A11831255218A15AC018A11AC218A1522
:1015D000CD1CF42B051CF42B85191A2B0518F72AA2
:1015E00068082E3C031CF72AE70A0319E80A851845
:1015F000012B6808223C0318012B67080319E80334
:10160000E7034630D600A201A3012308EC0022081C
:10161000EB006808EA006708E9002430D0000230D7
:10162000CF005508AE008A113D258A158A11AC21DC
:101630008A15EC2A83160612831206163A30A00089
:10164000A00B202B022146081B3C0318432BEC0166
:101650002330EB00F330EA000130E900460883163E
:10166000AE00831245088316AD008A11831203244D
:101670008A152F30E9020030031C0130EA026A08A3
:10168000E2006908E10083160616F4308312D600E2
:101690000F30CF00EC01EB016208EA006108E900BD
:1016A0005430D0004E118A113D258A158A11A4218B
:1016B0008A155A308316AD008A11831255218A1576
:1016C000FF30AE00051C722B8A11AC218A15AE08C2
:1016D000031DAE035A308316AD008A1183125521C3
:1016E0008A15622B5508AE008A1142248A154C08CF
:1016F0002B3C0318962BA6204D1159308316AD00B4
:101700008A11831255218A15851C8E2BE43083168D
:10171000AD008A11831255218A15952BDF3083166F
:10172000AD008A11831255218A15CA2B5808DE0094
:101730005708DD0061225808E0005708DF00A722A3
:101740003E08E6003D08E5003C08E4003B08E300F5
:101750005630D6000B30CF004830D0004E11EC018F
:10176000EB016008EA005F08E9008A113D258A154F
:101770008A11A4218A150730D6001130CF00EC0160
:10178000EB014408EA004308E9004E30D0008A111A
:101790003D258A15F101711AF32BEF307107F20024
:1017A00059307107840083130008F300720803178F
:1017B0008D0073088C0083168C130C158312031391
:1017C0000B08A0008B138316031755308D00AA3029
:1017D0008D008C148C18EA2B0C1183120313200833
:1017E0008B04F10ACB2BFB2B7C308316AD008A11C6
:1017F000831255218A158A11A4218A158A15332F3F
:101800000230F700FA30F9008A11DA208A15F70B56
:10181000022C0800C201C101CD1B6D2D4D1B6D2D89
:101820001830D0004D1183160612831206120024C0
:1018300083160616831202214608F2004508F100BD
:10184000F21B4F2D10307107F3007208F40027309F
:1018500003182830F4077408F8007308F700FA0139
:101860003130F900A101A201A001A3017A08031DF2
:101870003C2C79080319562C1030FB000310F70D8F
:10188000F80DA00DA30D7A082302031D492C790839
:101890002002031C522C7908A002031CA3037A081F
:1018A000A3020314A10DA20DFB0B3E2C2208F40091
:1018B0002108F3008316061283120616C10A0319C3
:1018C000C20A9F149F18622C83161E08F50083120B
:1018D0001E08F600421B762C76087402031C762C38
:1018E000031D5E2C73087502031C5E2C83160616FE
:1018F000831202214608F4004508F3007108F50040
:1019000001307207F600421F8F2C74087602031C08
:101910008F2C031D8E2C75087302031CCD17C20873
:10192000031D962C4108023C03184F2D4D154E15F2
:101930000630CF004630D6007408F6007308F50074
:101940008A11AC218A1502214508F5024608031CBC
:10195000460FF602F60CF50CF60CF50CF60CF50C31
:10196000F60CF50C0F30F605D301F619CD2CF60860
:10197000031DBE2C7508633C0318C12CF6016330AF
:10198000F5004D1DC62C7508D200CD2C7508D3006E
:10199000530BCB2CD3010310D30D0430CD064608D6
:1019A000F6004508F5004D1DA02C530852020318FF
:1019B000DB2C3630D0003030D3005208093C0318FD
:1019C000E52C0A30D202D30ADD2C3030D20753087E
:1019D000303C031DEF2C5208D3002030D200710898
:1019E000F3027208031C720FF4027108CF3CE90085
:1019F000C330EA007208031C720FEA02EB01EC012B
:101A00005B30FA006830F9008A11B0218A15740839
:101A10008316AE007308AD008A11831203248A1561
:101A2000D430E9023030031C3130EA020030031CAC
:101A30000130EB020030031C0130EC026208831617
:101A4000AE00831261088316AD008A11831203244D
:101A50008A154208FA004108F9008A11B0218A1556
:101A60002E30E9020030031C0130EA020030031C72
:101A70000130EB020030031C0130EC02EC08031DC6
:101A80004F2DEB08031D4F2D6A08033C031C4F2DFF
:101A9000FA010A30F9008A11B0218A15CF038316A2
:101AA0000612831206120530F9008A11DA208A150F
:101AB0000221831606168312421F6C2D7208003C09
:101AC000031C6C2D7408003C03186C2D4608003C68
:101AD000031C6C2DCD134D176E2D00248A15382F45
:101AE00000202008F1002108F2002208F30023085A
:101AF000F400FB002208FA002108F9002008F80091
:101B00003A088316A300831239088316A2008312B1
:101B100038088316A100831237088316A0008A11A3
:101B200083121D238A152308FB002208FA002108CE
:101B3000F9002008F8008A1123248A152308EC00F4
:101B40002208EB002108EA002008E9000630D00056
:101B50000230CF004630D6008A153A2FCD11123010
:101B6000D0004D1AE42D4408033C031CD42DCD1E97
:101B7000D02DCD12A7223E08FB003D08FA003C08FC
:101B8000F9003B08F8008A11FE228A152208C800D5
:101B90002108C7005B08C7025C08031C5C0FC80271
:101BA000CD154230D000E32D5C08F7005B08F6004D
:101BB0008A1176268A152308BE002208BD00210856
:101BC000BC002008BB00072E6608BE006508BD00EB
:101BD0006408BC006308BB0083103608FD003508AC
:101BE000FC003408FB003308FA008316A301A201AD
:101BF000A101A0018A11831293268A152308B60039
:101C00002208B5002108B4002008B3004E15CD18F5
:101C10000C2ECD111230D0005C205908E9025A0870
:101C2000031C5A0FEA020030031C0130EB020030A3
:101C3000031C0130EC020730CF004830D6000024EE
:101C40008A155A2F4E125E085802031C362E031DA9
:101C50002D2E57085D020318362E5E08F6005D082B
:101C6000F5005808F8005708F7003E2E5E08F80007
:101C70005D08F7005808F6005708F5005808F2000C
:101C80005708F1006122CD1CF52E4E15EC01EB0139
:101C90006008EA005F08E9007808FA007708F900B0
:101CA0008A11B0218A1576088316AE007508AD003A
:101CB0008A11831203248A156A08F4006908F30064
:101CC000EC01EB015A08EA005908E9005A08FA0049
:101CD0005908F9008A11B0218A156B08E9006C08CF
:101CE000EA00EB01EC015E08FA005D08F9008A11D8
:101CF000B0218A1574088316AE007308AD008A11EE
:101D0000831203248A1557087302F1007408F20045
:101D10005808031C580FF20274085802031CA02E26
:101D2000031D962E570873020318A02E4E16730833
:101D30005702F1005808F2007408031C740FF202F5
:101D40007208FA007108F9008A11B0218A154D1F36
:101D5000DD2E6C088316B20083126B088316B10067
:101D600083126A088316B000831269088316AF00D5
:101D7000B6010330B5002030B400B3018A118312DC
:101D8000BD238A152108F2002008F10058087202CC
:101D9000031CD02E031DCF2E570871020318CD103F
:101DA0007108D7027208031C720FD802D808031DED
:101DB000DD2E57081D3C0318CD1058088316AE00C1
:101DC000831257088316AD008A11831203248A15E3
:101DD0004E1EF52EE909EA09EB09EC09E90A031997
:101DE000EA0A0319EB0A0319EC0A8A15662F840123
:101DF00083131F308305FF30AC00AD0103171F10A4
:101E00009F101F119F1103131F13003003179E0013
:101E100099019A0183169E0183129B0103138D126F
:101E20001D298A1142248A157008B6006F08B50072
:101E30006E08B4006D08B300D10A6E08D1025108D3
:101E4000023C031C272FCE19CD16CE11282FCE15FC
:101E50006E08D1004C082B3C0318312FCD134D13C5
:101E60004D110518DB2A851C3B2F4D12CD110A2C74
:101E70004D1D702D5A2F4D1A4C2FC408031D4C2F89
:101E80004308633C031C4C2FCD1C4C2F83160612B9
:101E9000831206124D16592F4D1E592FC408031DCB
:101EA000552F4308143C0318592F83160616831226
:101EB0004D12AE2DAC01CD1B622F4D1B622F8A112E
:101EC0003D258A15AC0A4D1D7A2F222EF430D600FE
:101ED0000B30CF001E30D000CD1F712F3C30D00012
:101EE000AC014D1F762FE930D000AC018A113D25A1
:101EF0008A15912F4630D6000230CF00CD1D902F8D
:101F0000A201A3012308EC002208EB004808EA0024
:101F10004708E9000C30D0008A113D258A15912F21
:101F2000AC01AC08031D9C2FAC0A59308316AD00E0
:0C1F30008A11831255218A15112F6300BD
:10420000280008000C0001000600FF002000050047
:10421000200043007800FF00200020002000430021
:104220007000FF002000060020004C007800FF0016
:1042300003002000430020006D00FF000400200068
:10424000450053005200FF0020004300630061005E
:104250006C00FF0020004600300020002000FF001E
:1042600020004600430061006C00FF000300430093
:10427000200073007A00FF0020000400200052009C
:104280007800FF000500060020004C007800FF00C9
:1042900055006500730072003000FF0020004600EA
:1042A000650073007200FF00200020002000520013
:1042B0006500FF002000560000006C0074007300D1
:1042C000200076006900730073007A00610021000D
:1042D00020002000FF00560000006C0074007300F6
:1042E00020004300200000006C006C000000730000
:1042F000620061002100FF004B0061006C0069005A
:104300006200720000006C00000073002000680072
:104310006900620061002100FF00210019006F00A8
:1043200076001400690061000F000E007E001E0080
:104330005B0047001F001D000300FF000200040097
:104340000E0001000F0011000F00000006000F001A
:10435000090009000B000F000F0000000000000022
:1043600013001400140014001300000004001F00C8
:1043700011001F0000001F000400000004000E00D8
:104380000A000A000A000E000400000004000400F5
:104390001F0000001F0004000400000008001D00B2
:1043A0001D001D001D001D0008000000120012006D
:1043B00012001F001100120017000000FF004C0047
:1043C0002D003E003000FF0043002D003E00300075
:1043D000FF0002002D00450053005200FF00F200D4
:1043E0002500D9002800F600350036000400F20050
:0E43F000000091001D0012004000F2002600A7
:02400E00C23CB2
:00000001FF
;PIC16F690
;CRC=905F  CREATED="25-febr.-10 22:02"
